:100000000C9444050C940B0A0C9465050C9465053E
:100010000C9465050C94240A0C943D0A0C94560A21
:100020000C946F0A0C9465050C9465050C94650599
:100030000C9465050C9465050C9465050C94650598
:100040000C9465050C9465050C94E40A0C94650504
:100050000C94880D0C9465050C9465050C94210E88
:100060000C9465050C94E80F0C9465050C946505DB
:100070000C9465050C9465050C9465050C94650558
:100080000C9465050C9465050C9465050C94650548
:100090000C94471E0C9465050C9465050C9465053D
:1000A0000C9465050C9465050C9465050C94650528
:1000B0000C9465050C9465050C9465050C94650518
:1000C0000C9465050C9465050C946505214C31363E
:1000D00020636465666761623E636261676665644A
:1000E000630054323430204C3820612067616661EF
:1000F0006561646120632B61646165616661004FC5
:100100003620543430204C31362064233C623C6627
:10011000233C64233C66233C626423662300212045
:100120004F36204C3136206463643C622D643C6160
:10013000643C6720643C662B643C67643C61643CBF
:10014000622D0021204F332054343020662E622E41
:10015000662E622E662E622E662E622E0005050524
:100160000505050505050505050505050505050044
:1001700000010A200100021080000210800002101D
:10018000800002108000021080000210800000E851
:100190000305050505050505050505050505050511
:1001A0000505050000020A20029B011080BD0ACA55
:1001B00098410110809B1993AF6CA2D55232C2CFE7
:1001C000799B011080BD0ACA98410110809B199348
:1001D000AF80A2D55232C2CF7900000000E803E818
:1001E00003050505050505050505050505050505C1
:1001F0000505050000011B20069CC10E8AB10010F8
:1002000099000210809C2113808202108024DB550B
:10021000959C31926EFF011099000210809C211371
:10022000808202108024DB55959CC10E8AFF01104C
:1002300099000210809C2113808202108024DB55DB
:10024000959C31926EFF011099000210809C211341
:10025000808202108024DB55959CC10E8AFF01101C
:1002600099000210809C2113808202108024DB55AB
:10027000959C81D26BFF011099000210809C211384
:1002800080820210801E6397A600000000200000FC
:100290000000000000F8073801380138013801F883
:1002A00007050505050505050505050505050505FC
:1002B0000505050000010A20019C81D26BFF011099
:1002C00099000210809C211380820210801E639787
:1002D000A60000E803050505050505050505050556
:1002E000050505050505050000010A20029C011011
:1002F00080FF011099000210809C2113808202105F
:10030000808FEAD8C89C81D26BFF0110990002103F
:10031000809C211380820210801E6397A60000003B
:10032000008806C80205050505050505050505053E
:10033000050505050505050000011020039CF90FC2
:10034000808BA20B99BA0110809C215391820210DC
:10035000805FD253A29C011080C7C2099988011006
:1003600080C4E1919B82620F8537EAD8D99CF90F4E
:10037000808BA20B99BA0110809C215391820210AC
:1003800080E49296A31800D0010000E8034800E83A
:10039000030505050505050505050505050505050F
:1003A0000505050000010F20049CF90F80A9B20A81
:1003B00099920110809C21939B82021080A4EA14E0
:1003C000CB9CF90F8095520B999C0110809C2113B6
:1003D0009982021080FB7A17B09CF90F808BA20BD8
:1003E00099A60110809C219396820210803B0B17E6
:1003F0009C9CF90F808BA20B99BA0110809C215311
:100400009182021080E49296A30000000000000098
:1004100000D805E803E803E803050505050505051B
:1004200005050505050505050505050000010F2065
:1004300004F581126C4502D0A7B9F9CF7FF50954B4
:1004400087822AD27F24DB5595F581126CFFD1CDAE
:10045000A7E1F9CF7FF509549682FA4F6E24DB5558
:10046000956081126CFFD18D82E20110807E5190E7
:10047000918202906E24DB55956081126C4502904A
:1004800082A60110807E5190878232128024DB5533
:10049000950000000000000000D0006800D800684F
:1004A0000005050505050505050505050505050501
:1004B0000505050000010A2004F581126C4502D0F3
:1004C000A7B9F9CF7FF5095487822AD27F24DB555B
:1004D00095F581126CFFD1CDA7E1F9CF7FF50954D5
:1004E0009682FA4F6E24DB55956081126CFFD18D98
:1004F00082E20110807E5190918202906E24DB5541
:10050000956081126C45029082A60110807E519008
:10051000878232128024DB55950000000000000025
:1005200000D0006800D80068000505050505050530
:10053000050505050505050505050500000104205F
:1005400004F581126C4502D0A7B9F9CF7FF509D423
:100550007F822AD27F24DB5595F581126CFFD1CDA5
:10056000A713FACF7FF509549682FA4F6E24DB5514
:10057000956081126CFFD18D82000210807E5190B7
:10058000918202906E24DB55956081126C45029039
:1005900082A60110807E51107B8232128024DB55AE
:1005A000950000000000000000D800D800D800D856
:1005B00000050505050505050505050505050505F0
:1005C0000505050000010F20046081126C450290B2
:1005D00082A60110807E5190878232128024DB55E2
:1005E000956081126CFFD18D82E20110807E519066
:1005F000918202906E24DB5595F581126CFFD1CD6E
:10060000A7E1F9CF7FF509549682FA4F6E24DB55A6
:1006100095F581126C4502D0A7B9F9CF7FF5095441
:1006200087822AD27F24DB5595000000000000005D
:10063000006800D8006800D000050505050505051F
:1006400005050505050505050505050000010A2048
:10065000046081126C45029082A60110807E519048
:10066000878232128024DB55956081126CFFD18D18
:1006700082E20110807E5190918202906E24DB55BF
:1006800095F581126CFFD1CDA7E1F9CF7FF5095423
:100690009682FA4F6E24DB5595F581126C4502D097
:1006A000A7B9F9CF7FF5095487822AD27F24DB5579
:1006B0009500000000000000006800D8006800D02D
:1006C00000050505050505050505050505050505DF
:1006D0000505050000010420046081126C450290AC
:1006E00082A60110807E5190878232128024DB55D1
:1006F000956081126CFFD18D82E20110807E519055
:10070000918202906E24DB5595F581126CFFD1CD5C
:10071000A7E1F9CF7FF509549682FA4F6E24DB5595
:1007200095F581126C4502D0A7B9F9CF7FF5095430
:1007300087822AD27F24DB5595000000000000004C
:1007400000D800D800D800D000050505050505052E
:1007500005050505050505050505051300010F201F
:10076000059C81126C00D20D80000210809C211328
:10077000808202906E24DB55956981126CFFC9CD91
:100780007FFFF9CF7F9BF9CF7F82FA4F6E24DB5535
:10079000956A81126C00021080000210809C01108A
:1007A000808202108024DB55956A81126C00021051
:1007B00080BA0110809C0110808202108024DB55D9
:1007C000950082126C00021080BA0110809C2113E7
:1007D000808202108024DB5595000000000000009C
:1007E0000000004800480048004800480005050592
:1007F00005050505050505050505050505050500AE
:1008000000010F20050082126C000210800002100F
:10081000809C2193918202108024DB5595008212E6
:100820006C000290A50002108000229391820210B9
:100830008024DB55950082126C000290A500021006
:1008400080002213808202108024DB5595008212E2
:100850006C460290A50002108000221380823212A2
:100860008024DB55950082126C460210990002101C
:10087000809C2113808232128024DB559500000079
:100880000000000000000048004800480048004800
:10089000000505050505050505050505050505050D
:1008A0000505051600010F20050082126C46021096
:1008B00099000210809C2113808232128024DB5523
:1008C000950082126C460290A5000210800022134F
:1008D000808232128024DB55950082126C000290D7
:1008E000A500021080002213808202108024DB55B4
:1008F000950082126C000290A500021080002293E5
:10090000918202108024DB55950082126C00021047
:1009100080000210809C2193918202108024DB557C
:10092000950000000000000000000048004800485A
:1009300000480048000505050505050505050505F0
:10094000050505050505050000010F2005008212BB
:100950006C00021080BA0110809C2113808202106A
:100960008024DB55956A81126C00021080BA011058
:10097000809C0110808202108024DB55956A8112D0
:100980006C00021080000210809C01108082021016
:100990008024DB55956A81126C00D20D8000021014
:1009A000809C0110808202906E24DB55959C811200
:1009B0006C00D20D80000210809C21138082029076
:1009C0006E24DB5595000000000000000000004888
:1009D00000480048004800480053544F5000574614
:1009E0005744005742574400574C54200057525424
:1009F0002000574C534400575253440057464C5321
:100A000000574652530057424C530057425253002E
:100A100057414C2000574152200057464C54005734
:100A20004652540057424C540057425254005752B9
:100A3000445900534954200053544E440042414C01
:100A400020004D2020200046475550004247555079
:100A5000005253455400D909DE09E309E809ED09BC
:100A6000F209F709FC09010A060A0B0A100A150A1D
:100A70001A0A1F0A240A290A2E0A330A380A3D0ACA
:100A8000420A470A4C0A510A11241FBEC0E0DEEF99
:100A9000DEBFCDBF00E00CBF18E0A0E0B2E0E6EFA3
:100AA000F0E500E00BBF02C007900D92A63EB10733
:100AB000D9F71FE0A6EEB8E001C01D92A338B10738
:100AC000E1F70E941C090C9479280C9400008823FB
:100AD00021F480917C008F7D03C080917C00806236
:100AE00080937C00089580917C008295869581702A
:100AF00008950E947305882321F02091790030E049
:100B000004C02091780030917900C90108951F93A5
:100B1000DF93CF9300D0CDB7DEB7BC0180E090E08B
:100B2000209100023091010240E050E00E942F230A
:100B3000182F69837A839B830E94730569817A8168
:100B40009B81882371F09B01412F592FCA01B90164
:100B500061587F4F8F4F9F4F2FEF30E040E050E0C4
:100B60000DC09B01412F592FCA01B90161507E4F21
:100B70008F4F9F4F2FEF33E040E050E00E948123E2
:100B8000C9010F900F900F90CF91DF911F910895A1
:100B90000E947305882331F08091790090E00E94D3
:100BA0008705089580917800909179000E948705CB
:100BB0000895A2E0B2E0E0E003C0EF5FEB3081F027
:100BC0002D913D9182179307C0F7EE2359F0EB303A
:100BD00059F0F0E0EE0FFF1FE85EFD4F80810895B1
:100BE00085E0089580E5089585E008950F931F93AB
:100BF000CF93DF93809108099091090929E284300D
:100C0000920768F483E491E00E94E60D80911A094E
:100C100080931B0982E180931A0989E15AC00091EF
:100C200000091091010980910A0990910B09081B94
:100C3000190B1093E7080093E608C0910209D091C0
:100C4000030980910C0990910D09C81BD90BD09311
:100C5000E908C093E8088091FE089091FF08209170
:100C6000120930911309821B930B90930F09809303
:100C70000E098091FC089091FD0820911409309193
:100C80001509821B930B9093110980931009809191
:100C90000609909107099595879595958795909365
:100CA00017098093160980910409909105090E9403
:100CB000D90590E090931909809318090B3A110512
:100CC0006CF080911A0980931B0987E180931A09BF
:100CD0008CE180931F0921E030E063C08FEF06357F
:100CE00018074CF480911A0980931B0986E18093C0
:100CF0001A098BE1EECFC801880F991F880F991F41
:100D000066E370E00E946E23FB019B01220F331FFC
:100D1000260F371FCE01880F991F880F991F68E291
:100D200070E00E946E23AB01440F551F80E090E0FD
:100D3000A9EDBBE0EC01CC0FDD1FCA0FDB1F198250
:100D4000188201968231910599F75996FC93EE939A
:100D500058975D963C932E935C97F095E195FF4FE5
:100D60005B96FC93EE935A97309521953F4F5F9693
:100D70003C932E935E9751967C936E935097539627
:100D80007C936E93529788279927841B950B919695
:100D90009C938E93909793969C938E93929720E03A
:100DA00030E0C901DF91CF911F910F91089580919B
:100DB0007A0082958695869581700895873010F027
:100DC0008E3179F497E890937A0090917C0090644A
:100DD0009076982B90937C0080917A008064809329
:100DE0007A0008950E94DE060E94D7068823E1F764
:100DF0000E94790508950E94DE060E94D706882386
:100E0000E1F70E94C8050895CF92DF92EF92FF921A
:100E10000F931F93CF93DF93EB010E94DE060E9496
:100E2000D7068823E1F78E01CC24DD24760180915A
:100E30007A00806480937A000E94D7068823E1F7C5
:100E40000E947905A0E0B0E0C80ED91EEA1EFB1E84
:100E50000150104061F7CE0196958795C034D105B9
:100E600040F48C0D9D1D6C2F70E00E945A23CB0125
:100E70000DC0BC0180E090E06C0D7D1D8E1D9F1D9E
:100E80009E0140E050E00E948123C901DF91CF9193
:100E90001F910F91FF90EF90DF90CF9008950E94E7
:100EA00004070E9487050895909301028093000231
:100EB00008951F93CF93DF930E947305182F80E04E
:100EC0000E9467058EE164E170E00E9404078EE1F4
:100ED00064E170E00E940407EC01812F0E94670525
:100EE000BE017695679580E090E06C54744D8E4E0F
:100EF0009F4F9E0140E050E00E948123C901DF9195
:100F0000CF911F910895EF92FF921F93CF93DF939C
:100F10000E947305182F80E00E94670580E065E05D
:100F200070E00E944F07EC01812F0E946705CC0FF3
:100F3000DD1FCC0FDD1FCE01DF91CF911F91FF9000
:100F4000EF9008951F93CF93DF930E9459079093DA
:100F50000102809300020E94830790930909809305
:100F600008090E94690E6093F2087093F308809359
:100F7000F4089093F50810920B0910920A09109248
:100F80000D0910920C091092130910921209109277
:100F900015091092140910E18091CC02813079F486
:100FA000C0910A09D0910B0983E06CE070E00E94C7
:100FB0000407C80FD91FD0930B09C0930A09809169
:100FC000CD02813079F4C0910C09D0910D0984E0F3
:100FD0006CE070E00E940407C80FD91FD0930D0980
:100FE000C0930C098091CB02813079F4C091120931
:100FF000D091130982E06CE070E00E944F07C80FA7
:10100000D91FD0931309C09312098091CA0281306D
:1010100071F4C0911409D09115096CE070E00E9440
:101020004F07C80FD91FD0931509C09314098FEF2C
:101030009FE8A1E081509040A040E1F700C000008F
:10104000115009F0A9CF80910A0990910B0934E061
:10105000969587953A95E1F790930B0980930A0945
:1010600080910C0990910D0924E0969587952A9519
:10107000E1F790930D0980930C09809112099091EA
:10108000130914E0969587951A95E1F79093130943
:10109000809312098091140990911509B4E09695F6
:1010A0008795BA95E1F790931509809314090E94EA
:1010B000690E6093EA087093EB088093EC089093B4
:1010C000ED08DF91CF911F9108950E94690E209144
:1010D000F2083091F3084091F4085091F508621B32
:1010E000730B840B950B683E23E0720720E08207A8
:1010F00020E0920780F00E94830790930909809373
:1011000008090E94690E6093F2087093F3088093B7
:10111000F4089093F5080E94690E2091EA08309136
:10112000EB084091EC085091ED08621B730B840BA7
:10113000950B603171058105910508F46EC08091B1
:10114000CC02813039F483E00E94F20690930109C9
:10115000809300098091CD02813039F484E00E94AF
:10116000F20690930309809302098091CB028130AB
:1011700039F482E00E94FB069093FF088093FE08FA
:101180008091CA02813031F40E94FB069093FD08E1
:101190008093FC080E94690E2091EE083091EF08C0
:1011A0004091F0085091F108621B730B840B950B72
:1011B000643F21E0720720E0820720E0920700F1FF
:1011C0008091CE02813039F485E00E94F20690933E
:1011D0000509809304098091CF02813039F486E0BB
:1011E0000E94FB0690930709809306090E94690EEE
:1011F0006093EE087093EF088093F0089093F108E5
:101200000E94690E6093EA087093EB088093EC08E3
:101210009093ED0821E030E002C020E030E0C90109
:10122000089507C0EFE9FFE03197F1F700C0000033
:1012300001970097B9F70895FF920F931F93CF93EB
:10124000DF930E940C1560E071EE80E090E00E9458
:10125000811C0E94040B0E94880A88EC90E00E9486
:1012600011098EE70E9419150E94CF0E78940F92F3
:101270000F928EE292E0ADB7BEB712969C938E931A
:1012800011970E9421240F900F9087E392E00E9413
:1012900033241092FA080E941D1507C080E40E94B2
:1012A000101588EC90E00E9411098091FA088823BB
:1012B000A9F380E40E9414151092FA0881E090E0EE
:1012C0000E94E31280EE90E00E94E91980E090E035
:1012D0000E94C62080EA9FE00E9411090E94A20796
:1012E000009108091091090960910A0970910B0990
:1012F00040910C0950910D09209112093091130968
:101300008091140990911509EDB7FEB73C970FB67F
:10131000F894FEBF0FBEEDBF3196CFE4D2E0ADB77B
:10132000BEB71296DC93CE93119713830283758315
:1013300064835783468331872087938782870E94FF
:101340002124EDB7FEB73A960FB6F894FEBF0FBE54
:10135000EDBF87E892E0928381830E9421240F9061
:101360000F90C0E0D0E0FF24F3940E94F01E8C01A7
:101370008091FA08882399F080911A09882379F0DE
:101380008EEF90E068E170E040E050E00E945C1277
:1013900080911A0980931B0910921A090EC080913E
:1013A000FA08882371F080911A09882351F48091FA
:1013B0001B0980931A0910921B091092FA0801E088
:1013C00010E00E9465088130910551F40E94F605F5
:1013D0000115110529F48130910511F401E010E0A7
:1013E0000E94C920009779F0CE010E946921EC018A
:1013F0000115110541F48130910541F0FFEF8F3F58
:101400009F0731F403C00130110511F4F0921C095B
:101410000E94E117AACF1F920F920FB60F921124CC
:101420008F939F93F8948FE39CE90197F1F700C0A5
:10143000000081E08093FA0878949F918F910F903B
:101440000FBE0F901F9018951F920F920FB60F921C
:1014500011248F939F93F8948FE39CE90197F1F700
:1014600000C0000081E08093F60878949F918F91EE
:101470000F900FBE0F901F9018951F920F920FB6EE
:101480000F9211248F939F93F8948FE39CE9019717
:10149000F1F700C0000081E08093F70878949F91F5
:1014A0008F910F900FBE0F901F9018951F920F9263
:1014B0000FB60F9211248F939F93F8948FE39CE9BA
:1014C0000197F1F700C0000081E08093F80878945C
:1014D0009F918F910F900FBE0F901F9018951F92A4
:1014E0000F920FB60F9211248F939F93F8948FE36E
:1014F0009CE90197F1F700C0000081E08093F908B2
:1015000078949F918F910F900FBE0F901F90189518
:101510008DB18F708DB950988EB1806F8EB983E088
:101520008093690010926A0081EF8DBB08959091BD
:101530002109E091B30BF091B40B992311F0849140
:1015400001C08081282F21542A3110F4805E089533
:10155000803271F42091B30B3091B40BA9014F5F2D
:101560005F4F5093B40B4093B30B2115310509F72E
:101570000895EF92FF92CF93DF930E94970AC0E005
:10158000D0E018C09E01220F331F93E0CC0FDD1F67
:101590009A95E1F7C20FD31FC80FD11DE097809134
:1015A000B30B9091B40B01969093B40B8093B30B53
:1015B0000E94970A982F90539A3020F3CE01DF9122
:1015C000CF91FF90EF9008951F920F920FB60F9258
:1015D00011242F933F938F939F93209184003091F8
:1015E000850080918A0090918B008217930710F4F8
:1015F0002D9801C02D9A9F918F913F912F910F901F
:101600000FBE0F901F901895EFE6F0E0108283E276
:101610008093800081E1809381001092820080E4B9
:101620009FE1909389008093880010928B00109224
:101630008A00259A85E080830895AF92BF92CF9269
:10164000DF92EF92FF920F931F93CF93DF935B0193
:10165000042F1092FB0897FF03C09F771AE001C088
:1016600011E0C0908100DD2428EFC222DD2428ECA7
:10167000129F9001112428173907C8F4EC0137E2B2
:101680008131930710F0C0E1D7E2BE0176956795EE
:1016900080E090E06058794687469F4F9E0140E089
:1016A00050E00E948123790141E050E028C038E2F7
:1016B000139F302D112420E0632FEB017E01F22EC9
:1016C000E701E816F90608F4EC01BE017695679586
:1016D0009E0140E050E01A3039F480E090E0605E16
:1016E000734481449F4F06C080E090E060537D4E7C
:1016F0008C4E9F4F0E948123790142E050E0C42A22
:10170000D52A1A3039F4CE0105966AE070E00E94BD
:101710005A23EB0153E0C83ED50779F0BE0180E0C3
:1017200090E0950140E050E00E942F2328EE33E046
:1017300040E050E00E94A32301C0950110926F0089
:10174000C0928100F0928900E09288004091880068
:1017500050918900003108F00FE080E190E0801B9B
:101760009109BA0102C0769567958A95E2F7709360
:101770008B0060938A00309325092093240986B357
:101780008FEF86BB85E080936F00DF91CF911F9133
:101790000F91FF90EF90DF90CF90BF90AF900895A2
:1017A0009B018F3F11F0442329F488EE93E0B901A7
:1017B00040E049C0813130F0582F5051503618F078
:1017C0005FE501C050E0852F6CE00E944E23A82FFA
:1017D000B0E0E4EFFFEFAE9FB001AF9F700DBE9F92
:1017E000700D1124650F711D6C30710540F4FB0103
:1017F000EE0FFF1FE752FD4F6081718102C060E074
:1018000070E0873081F0082E02C0660F771F0A94BF
:10181000E2F7823028F0CB0105966AE070E00CC058
:10182000605070480BC0CB01F6E0880F991FFA9505
:10183000E1F7029665E070E00E945A23403108F01B
:101840004FE0CB01B9010E941D0B08957F928F924A
:101850009F92AF92BF92CF92DF92EF92FF920F933F
:101860001F93CF93DF93B090D002809123098823F8
:1018700061F060912209662341F08FEF70E040E053
:101880000E94D00B1092220935C1C0ECDDE5AA24DC
:10189000A39474E0772E00ED17E064E0E62EF12CBF
:1018A00054EFC52E51E0D52E4FE0842E912C0E948E
:1018B000970A2091B30B3091B40B2F5F3F4F3093B9
:1018C000B40B2093B30B8636F1F18736C8F4823619
:1018D00009F4AFC0833678F48E3349F18F3338F48E
:1018E000813209F487C08C3309F09BC022C0813655
:1018F00009F097C09BC0843601F1853608F51BC0FE
:101900008F3609F447C0803740F48C3611F18D369C
:1019100061F1873609F085C019C0843709F444C0E5
:10192000863709F460C0823709F07BC039C0B394B0
:10193000BECFBA94BCCFEE2435C0EE2482E07BC08B
:10194000EE2484E078C0EE2485E075C0EE2487E0C4
:1019500072C00E94B90ABC019093D2028093D10256
:101960008091D3029091D40237C00E94970A8C369E
:1019700019F41092230904C0A0922309109222099D
:101980008091B30B9091B40B01969093B40B80931C
:10199000B30B8DCF0E94B90AB82E8093D00287CFA7
:1019A000EE24E39480E047C00E94B90ABC01CE0156
:1019B0000E945A23CB01880F991F23E0660F771FDF
:1019C0002A95E1F7860F971F9093D4028093D30254
:1019D0006091D1027091D2020E945A237093D60274
:1019E0006093D50264CF0E94B90A9093D802809385
:1019F000D7025DCF7092D0021093D4020093D3022D
:101A0000F092D202E092D102D092D602C092D502D8
:101A10009092D8028092D7021092230994E0B92EB6
:101A200046CF1092B40B1092B30B64C0EE2489E041
:101A300002C0EE248BE09CE0B99EB02C1124B80EBD
:101A40000AC08091B30B9091B40B01969093B40BA4
:101A50008093B30BB3940E94970A8B3291F3833235
:101A600081F30CC08091B30B9091B40B01969093CD
:101A7000B40B8093B30BBA940E94970A8D3291F302
:101A8000C091D502D091D6028153883058F4C091CC
:101A9000D302D091D4020E94B90ABC01CE010E94A7
:101AA0005A23EB018E010BC08091B30B9091B40BC4
:101AB00001969093B40B8093B30BC00FD11F169572
:101AC00007950E94970A8E3279F380912309882323
:101AD00039F0CE019695879580932209C81BD109CC
:101AE000EE2011F0BB24BA948B2DBE014091D70299
:101AF0000E94D00BDF91CF911F910F91FF90EF903B
:101B0000DF90CF90BF90AF909F908F907F9008957F
:101B10001F920F920FB60F920BB60F9211242F93B4
:101B20003F934F935F936F937F938F939F93AF9365
:101B3000BF93EF93FF9380912409909125099C0115
:101B40002150304030932509209324090097F1F467
:101B500010926F00789480918100887F81608093DB
:101B6000810080E49FE19093890080938800109227
:101B70008B0010928A0081E08093FB088091B30B68
:101B80009091B40B009711F00E94260CFF91EF91F9
:101B9000BF91AF919F918F917F916F915F914F9185
:101BA0003F912F910F900BBE0F900FBE0F901F9083
:101BB000189510926F009093B40B8093B30B109212
:101BC0002109109222090E94260C089510926F009C
:101BD0009093B40B8093B30B81E080932109109212
:101BE00022090E94260C08958091FB08882361F049
:101BF00081E090E02091B30B3091B40B21153105B9
:101C000029F480E090E0089581E090E0089510923A
:101C10006F00E1E8F0E08081887F8160808380E46C
:101C20009FE1909389008093880010928B0010921E
:101C30008A0081E08093FB081092B40B1092B30BE2
:101C400008951F920F920FB60F9211242F933F9376
:101C50008F939F93AF93BF9380912A0990912B0903
:101C6000A0912C09B0912D0930912E090196A11D4A
:101C7000B11D232F2D5F2D3720F02D570196A11D6B
:101C8000B11D20932E0980932A0990932B09A093CC
:101C90002C09B0932D098091260990912709A091D4
:101CA0002809B09129090196A11DB11D809326092B
:101CB00090932709A0932809B0932909BF91AF9168
:101CC0009F918F913F912F910F900FBE0F901F907A
:101CD000189510926E0020912A0930912B0940919D
:101CE0002C0950912D0981E080936E00A89B18C0AB
:101CF0002F5F3F4F4F4F5F4F80912A0990912B09E3
:101D0000A0912C09B0912D090196A11DB11D8093C0
:101D10002A0990932B09A0932C09B0932D09A89A16
:101D2000B901CA01089510926E00209126093091E0
:101D30002709409128095091290966B581E08093CF
:101D40006E00A89B1AC06F3FC1F02F5F3F4F4F4FEF
:101D50005F4F80912A0990912B09A0912C09B09195
:101D60002D090196A11DB11D80932A0990932B097D
:101D7000A0932C09B0932D09A89A542F432F322FEA
:101D80002227260F311D411D511D82E0220F331FD6
:101D9000441F551F8A95D1F7B901CA01089584B52A
:101DA000826084BD84B5816084BD85B5826085BD57
:101DB00085B5816085BDEEE6F0E08081816080833D
:101DC0000895EF92FF920F931F937A018B0182E4A3
:101DD0008093C00088E98093C10086E08093C200B0
:101DE00060E074E284EF99E4A80197010E94AA21BF
:101DF0000E941222615070407093C5006093C4002D
:101E000060E074E284E799E4A80197010E94AA21A6
:101E100020E030E040E451E40E94CC229B01AC0180
:101E20002093FF0B3093000C4093010C5093020C55
:101E30002091FF0B3091000C4091010C5091020C4D
:101E400060E070E08AE793E40E94AA210E941222D7
:101E50007093FE0B6093FD0B7298739A8FEF8093D3
:101E6000C60010922F0A1092300A81E090E01F9174
:101E70000F91FF90EF9008951092C1000895809106
:101E8000300A80932F0A0895F8947398729AFC018F
:101E900020E030E00EC08091C00085FFFCCF809133
:101EA000C00080648093C00081918093C6002F5F42
:101EB0003F4F261737077CF38091C00086FFFCCF89
:101EC0007298739A7894C90108951092060C109232
:101ED000050C2091FD0B3091FE0B265F3F4F280F24
:101EE000391F3093040C2093030C08958091050C46
:101EF0009091060C01969093060C8093050C20910E
:101F0000050C3091060C8091030C9091040C821703
:101F10009307F8F06091FF0B7091000C8091010C19
:101F20009091020C0E941222262F372F482F592FF2
:101F300008C085E08A95F1F700002150304040400C
:101F40005040211531054105510599F720E030E059
:101F500002C021E030E0C901089590912F0A8091DC
:101F6000300A9817B1F090912F0A8091300A981793
:101F700030F42091300A80912F0A30E007C0209180
:101F8000300A80912F0A30E020503F4F281B310942
:101F900002C020E030E0C90108951F93182F0E946D
:101FA000AD0F8F3F910591F0E091300AF0E0E15DD7
:101FB000F64F10838091300A8F3F19F41092300A47
:101FC00005C08091300A8F5F8093300A1F91089579
:101FD0001F920F920FB60F920BB60F9211242F93F0
:101FE0003F934F935F936F937F938F939F93AF93A1
:101FF000BF93EF93FF938091C6000E94CD0FFF9196
:10200000EF91BF91AF919F918F917F916F915F9170
:102010004F913F912F910F900BBE0F900FBE0F90DD
:102020001F90189590912F0A8091300A981799F077
:10203000E0912F0AF0E0E15DF64F808190912F0A48
:102040009F3F19F410922F0A089590912F0A9F5FD5
:1020500090932F0A08958FEF0895CF92DF92EF9219
:10206000FF920F931F93CF93DF93F82EE92E8B01EE
:1020700090912F0A8091300A9817E1F00E94AD0FDD
:10208000C82EE6016E01D92EE6010C151D050CF4D3
:10209000E801C701E92EF82E00E010E007C00E9419
:1020A0001210F70181937F010F5F1F4F0C171D075F
:1020B000B4F302C0C0E0D0E0CE01DF91CF911F9118
:1020C0000F91FF90EF90DF90CF900895CF93DF9323
:1020D000EC016F5F7F4F882777FD8095982F0E94D6
:1020E00040229B01AC0160E074E284EF99E40E941D
:1020F000AA21AB01BC01CE010E94E10E009769F05C
:1021000081E090E09093B0058093AF0510921A0B98
:102110001092190B21E030E002C020E030E0C9014C
:10212000DF91CF9108950E943C0F08951F938091F5
:10213000190B90911A0B8130910509F45FC081E071
:1021400090E090931A0B8093190B8091340A89398F
:1021500040F49091350A292F2150263028F09338E9
:1021600019F084E090E030C09FEF9093310A909393
:10217000320A40E050E090E006C02F5C354FF90194
:102180002281420F5F5F252F30E082179307ACF763
:102190008F5C954F4095FC0143838091AF059091F2
:1021A000B00506978230910510F40E943F0F109100
:1021B000340A1C5F81E39AE0612F70E00E94440FB3
:1021C000181759F082E090E09093B0058093AF0526
:1021D00010921A0B1092190B11C08091350A82309F
:1021E00029F48091370A90E0069602C086E090E0DC
:1021F0000E94650F1092B0051092AF051F910895CF
:10220000EF92FF920F931F938091190B90911A0BED
:10221000009709F4C3C08091330A8E3F09F4B4C01B
:102220008091AF059091B005009729F41092180B9A
:1022300086E08093170B8091180B90E06091170B4C
:1022400070E0681B790B8F52954F0E942D10909172
:10225000180B980F9093180B8091170B981768F430
:102260000E94760F8130910541F48091180B8823EC
:1022700009F087C086E090E089C0E090180B2E2D11
:1022800030E0A90141505040B9016250704010E067
:10229000DA01AF52B54F11C0FC01EF52F54FF0809B
:1022A0000F2D0F3F19F4E181EF3F61F0861797077B
:1022B00019F4EC91EF3F31F01F5F812F90E084170C
:1022C000950754F31123C1F060E0281B390B8F529E
:1022D000954F09C0FA01EF52F54F480F591FDA0127
:1022E0004C9140836F5F462F50E04217530794F3A1
:1022F0000E2D011B0093180B8091180B9091170B5A
:102300008917F0F02091330A9091D30A2917C9F563
:102310006091D40A6C5F6093170B8617C0F490E04D
:1023200070E0681B790B8F52954F0E942D10909191
:10233000180B980F9093180B8091170B981738F47F
:1023400085E090E09093B0058093AF0527C0809121
:10235000D40A90E040E050E006C02F52354FF9011A
:102360002281420F5F5F252F30E082179307ACF781
:102370008F52954F4095DC0113968C9113978417DB
:1023800019F087E090E002C081E090E09093B00502
:102390008093AF0510921A0B1092190B1F910F9199
:1023A000FF90EF9008950E9496108091AF05909154
:1023B000B005009749F40E9400118091AF059091FB
:1023C000B00585309105B9F308958091AF059091DE
:1023D000B00508958093330A08958093350A0895CF
:1023E000FC01EF5CF54F658308958093340A0895EE
:1023F0009091D50A982321E030E011F420E030E0FC
:10240000C90108958091D40A90E00895FC01EF522B
:10241000F54F858190E00895362F20E0280F391F71
:10242000C9010895282F30E0C90108958070892FCF
:1024300090E008952091190B30911A0B2115310568
:10244000F9F48093330A81E08093350A82E0809327
:10245000340A0E94D3118091AF059091B00581306C
:10246000910521F42091D50A30E008C0863091050D
:1024700019F42FEF3FEF02C020E030E0C9010895CA
:10248000FFCF2091190B30911A0B2115310599F4CA
:102490008093330A82E08093350A6093360A81E0A4
:1024A0008093370A84E08093340A0E94D31180918C
:1024B000D60A90E00895FFCF2091190B30911A0BA6
:1024C0002115310599F48093330A83E08093350A0E
:1024D0006093360A4093370A84E08093340A0E945E
:1024E000D3118091AF059091B0050895FFCF209151
:1024F000190B30911A0B21153105B9F48093330A69
:1025000082E08093350A6093360A8093370A84E02C
:102510008093340A0E94D3113091D70A20E0809131
:10252000D60A280F311DC9010895FFCF2091190B3C
:1025300030911A0B21153105B9F48093330A83E0E9
:102540008093350A6093360ACA014093370A807037
:102550009093380A85E08093340A0E94D3118091C9
:10256000AF059091B0050895FFCF84309105B9F083
:10257000853091053CF48230910571F083309105EE
:10258000E9F410C08630910599F0863091056CF021
:102590008730910599F40FC081EF92E011C086E277
:1025A00093E00EC082E593E00BC088E893E008C09A
:1025B0008AEB93E005C086EE93E002C08FE094E0E2
:1025C0000E94332408951F93CF93DF93BC0180E0D2
:1025D00090E00E9466108FEF91EEA4E08150904051
:1025E000A040E1F700C00000C8EBD2E01991812FB4
:1025F00090E00E941A12AFEF8F3F9A07C1F400D00B
:102600000F92EDB7FEB7319623E234E0ADB7BEB717
:1026100012963C932E931197128313820E942124C9
:102620000F900F900F900F900E943C0FE9C0B2E006
:10263000CA3CDB07D9F68EEF90E061E170E044E23E
:1026400050E00E945C128130910591F00F920F9240
:1026500088E594E0EDB7FEB7928381830E94212440
:102660000F900F908091AF059091B0050E94B51228
:102670008EEF90E062E170E044E250E00E945C1274
:1026800081309105A1F00F920F9288E594E0ADB7EB
:10269000BEB712969C938E9311970E9421240F909F
:1026A0000F908091AF059091B0050E94B5128EEF0A
:1026B00090E06BE070E046E450E00E945C128130F4
:1026C000910591F00F920F9284E794E0EDB7FEB779
:1026D000928381830E9421240F900F908091AF05F7
:1026E0009091B0050E94B5128EEF90E06CE070E022
:1026F00046E450E00E945C1281309105A1F00F92F7
:102700000F9288E994E0ADB7BEB712969C938E9372
:1027100011970E9421240F900F908091AF05909106
:10272000B0050E94B5128EEF90E06AE170E042E0E1
:1027300050E00E945C128130910591F00F920F924F
:102740008CEB94E0EDB7FEB7928381830E94212445
:102750000F900F908091AF059091B0050E94B51237
:102760008EEF90E06BE170E042E050E00E945C127E
:1027700081309105A1F00F920F9283EE94E0ADB7F6
:10278000BEB712969C938E9311970E9421240F90AE
:102790000F908091AF059091B0050E94B5128FEF18
:1027A00091EEA4E081509040A040E1F700C000000D
:1027B0008EEF90E068E170E041E050E00E945C1232
:1027C00081309105A1F00F920F928BE095E0ADB7AB
:1027D000BEB712969C938E9311970E9421240F905E
:1027E0000F908091AF059091B0050E94B5128FEFC8
:1027F00090E7A2E081509040A040E1F700C00000C7
:10280000DF91CF911F91089581E090E00E94F8112F
:102810008130910521F48BE295E00E94332482E01F
:1028200090E00E94F8118130910521F480E495E058
:102830000E94332484E090E00E94F81181309105D9
:1028400021F483E595E00E94332488E090E00E9423
:10285000F8118130910521F483E695E00E9433243C
:1028600080E190E00E94F8118130910521F487E722
:1028700095E00E94332480E290E00E94F8118130BC
:10288000910521F487E895E00E94332480E490E0EC
:102890000E94F8118130910521F487E995E00E94AA
:1028A000332408950F931F93CF93DF93FA01E90127
:1028B0002091190B30911A0B2115310509F04DC0EB
:1028C000009709F442C08130910539F4488159815B
:1028D000808190E00E94961238C02EEF2093330A38
:1028E00023E82093350A6093360A22E02093370AC2
:1028F0008A01A8E3BAE040E050E014C0F801219159
:102900008F012C934F5F5F4F9E01699179911196D2
:102910006C931197F90120813181207012963C93BC
:1029200012971396481759074CF39C01220F331F37
:10293000280F391F2C5F3F4F2093340A0E94D31178
:102940002091AF053091B00502C020E030E0C90110
:10295000DF91CF911F910F910895FFCFEF92FF92DA
:102960000F931F93CF93DF93E091190BF0911A0B04
:10297000309709F050C0009709F443C0EEEFE093A0
:10298000330AE3E8E093350AEEE1E093360AE4E047
:10299000E093370AE1E3FAE0E42EE7017E01F52E49
:1029A000E701A22FB32F8D0120E030E014C0DB013E
:1029B0004D91BD01428348814383499159914070B3
:1029C00054832F5F3F4FD8014C9145834D915D91CA
:1029D0008D014070568335962817390744F39C01C2
:1029E000220F331F220F331F280F391F2C5F3F4F39
:1029F0002093340A0E94D3112091AF053091B00585
:102A000002C020E030E0C901DF91CF911F910F910A
:102A1000FF90EF900895FFCF8FE787B918B808951A
:102A200098B1982798B9089598B18095892388B965
:102A3000089598B1982B98B90895E7E4F7E0AEE9C6
:102A4000B2E091918D91981719F081EB95E006C055
:102A500087E0E136F807A9F788EF95E00E94332474
:102A60008FEF9FEF0E9479284F925F926F927F9233
:102A70008F929F92AF92BF92CF92DF92EF92FF928E
:102A80000F931F93CF93DF934C01FC01EE0FFF1FB9
:102A9000E95CF24F00811181F801A7E0BCE084916C
:102AA0008D9331965CE0A931B507C9F7F8017296AC
:102AB000E491E093190CF8017396E491E0931A0CF9
:102AC000F8017496E491E0931B0CF8017596A490BC
:102AD000A0921C0CF8017696E491E0931D0CF8018D
:102AE0007796B490B0921E0CB801665E7F4FEE24CC
:102AF000FF24A4E26A2E712CB8C0FB018591949149
:102B0000A0E0B0E0DC0199278827FB0132972591EE
:102B1000349140E050E0820F931FA41FB51F9C0129
:102B200033703D832C839C01AD01EBE056954795B6
:102B300037952795EA95D1F733703B832A8336E1A1
:102B4000B695A795979587953A95D1F79370998300
:102B500088836C5F7F4F26966C157D0571F6E69C29
:102B6000F001E79CF00DF69CF00D1124E15EF34FAF
:102B700022E6422E27E0522E46E857E0C0E0D0E0A1
:102B800081919191D201CD90DD902D01C816D90689
:102B900040F0DA012D913D91AD018217930708F0C5
:102BA0005CC000D000D0EDB7FEB7319687E396E069
:102BB000ADB7BEB712969C938E9311979382828283
:102BC000C7010196958384830E94212400D00F922F
:102BD000ADB7BEB711968DE696E0EDB7FEB792831E
:102BE0008183FE01E854FD4F808112968C931297E9
:102BF00013961C921397EE0CFF1CF70183E0EE0F67
:102C0000FF1F8A95E1F7EE0DFF1DEC0FFD1FEE0F84
:102C1000FF1FE15EF34F8081918115969C938E9307
:102C20001497CC0FDD1FCA57D84F8881998117960A
:102C30009C938E9316971996DC92CE9218970E94C9
:102C400021248DB79EB70A960FB6F8949EBF0FBE8B
:102C50008DBF8FEF9FEF0E9479282196C231D10559
:102C600009F08ECF0894E11CF11CEB14B0F088E160
:102C70009B2D989F40011124CBE1DDE09401285E5B
:102C80003F4F200F311FEB2CFF24EE0CFF1C3E01A9
:102C90006E0C7F1CCA2C40E040C0E69CE001E79C23
:102CA000D00DF69CD00D1124C15ED34FA8E1CA2EE1
:102CB000D12CC60ED71E21CFF9018591949199830D
:102CC0008883BC0161507040A9E163367A0790F4B3
:102CD000BC01660F771FE3E0880F991FEA95E1F7C3
:102CE000680F791FCB016C2D742F0E945A237983B2
:102CF000688310C06C2D742F0E945A23CB01880F5B
:102D0000991FB3E0660F771FBA95E1F7860F971FFB
:102D10009983888322962E5F3F4FC615D70561F6AB
:102D2000C9E2DDE09701285E3F4F280D391D200FD5
:102D3000311F87010C0F1D1F40E031C0F901859143
:102D4000949199838883BC0161507040B9E16336E6
:102D50007B0790F4BC01660F771FF3E0880F991F83
:102D6000FA95E1F7680F791FCB016A2D742F0E9445
:102D70005A237983688310C06A2D742F0E945A23C6
:102D8000CB01880F991F53E0660F771F5A95E1F723
:102D9000860F971F9983888322962E5F3F4FC01717
:102DA000D10761F6DF91CF911F910F91FF90EF90C6
:102DB000DF90CF90BF90AF909F908F907F906F905B
:102DC0005F904F900895CF92DF92EF92FF920F9312
:102DD0001F93DF93CF93CDB7DEB7A4970FB6F894C8
:102DE000DEBF0FBECDBF1816190694F520911E0C3C
:102DF00030E02817390764F16C010894C108D10844
:102E000084E290E0C89EF001C99EF00DD89EF00DBE
:102E10001124E15EF34FDE011196CE0185962191DA
:102E200031912D933D93A817B907C9F70E94690EF8
:102E30007B018C01F601EE0FFF1FE75DF24F8081F1
:102E40009181BE016F5F7F4F40E00E94FC1B03C079
:102E5000EE24FF248701B701C801A4960FB6F894A9
:102E6000DEBF0FBECDBFCF91DF911F910F91FF90BD
:102E7000EF90DF90CF9008954F925F926F927F9284
:102E80008F929F92AF92BF92CF92DF92FF920F9359
:102E90001F93CF93DF93C7E0DCE03BEFC32E3EE010
:102EA000D32E28EBA22E22E0B22E91E0892E912C77
:102EB0002E016880D6018C91861509F444C0F50175
:102EC000F080C40102C0880F991F6A94E2F73C01A8
:102ED0008F2D90E06DE170E0462D50E00E945C1275
:102EE0008C018130910541F000D00F92EDB7FEB713
:102EF000319680EA96E013C08F2D90E06CE170E08F
:102F0000462D50E00E945C128C0181309105D9F071
:102F100000D00F92EDB7FEB731968BEC96E0ADB7CF
:102F2000BEB712969C938E931197F28213820E94E1
:102F300021240F900F900F900F90C8010E94B5129E
:102F40002FEF3FEF10C02196F2018081D6018D93C3
:102F50006D010894A11CB11CBCE0C931DB0709F06C
:102F6000A7CF20E030E0C901DF91CF911F910F91F1
:102F7000FF90DF90CF90BF90AF909F908F907F9009
:102F80006F905F904F9008951F93CF93DF93C8EB9E
:102F9000D2E010E0899190E06EE270E00E94411270
:102FA000180F113039F082E0CA3CD80799F720E0B9
:102FB00030E002C021E030E0C901DF91CF911F91E4
:102FC0000895FF920F931F93CF93DF938091AA07E9
:102FD0008130C1F50E94C920009709F10E94690E55
:102FE0002091210B3091220B4091230B5091240B07
:102FF000621B730B840B950BE0912009F0E0EE0F40
:10300000FF1FE95DF24F2081318140E050E06217FF
:1030100073078407950708F4D6C183E035C00E9482
:10302000C417882309F0CFC183E08093AA070E94C8
:10303000690E6093250B7093260B8093270B90935A
:10304000280B24C0823011F50E94690E20911B0BC1
:1030500030911C0B40911D0B50911E0B621B730B8A
:10306000840B950BE0912009F0E0EE0FFF1FE75E67
:10307000F24F2081318140E050E0621773078407EE
:10308000950708F4A0C184E08093AA078091AA075D
:103090008330E9F50E94C9200097C9F508EB12E0DA
:1030A000D801FD908D018F2D90E00E941A12EC0145
:1030B000009739F18EEF90E068E170E040E050E079
:1030C0000E945C1200D000D0EDB7FEB7319685EFBC
:1030D00096E0ADB7BEB712969C938E931197F2828D
:1030E0001382D583C4830E94212486E08093AA079B
:1030F000EDB7FEB736960FB6F894FEBF0FBEEDBF24
:1031000062C1F2E00A3C1F0759F60E94C81A80917A
:10311000AA078630B9F480911A09883199F48EEFA4
:1031200090E062E270E04FEF53E00E9496128EEF63
:1031300090E068E170E041E050E00E945C1287E0BE
:103140008093AA078091200940911E0C841709F0F2
:1031500071C09091AA079350923008F06BC0809193
:10316000200B813019F41092200B2AC180911A098A
:10317000882359F480911A0C882309F421C1809383
:103180001E0981E08093200B2EC000911C090130A4
:10319000A1F40E94CD208130910519F410921C09F0
:1031A00022C080911A0C882319F410921E0908C1BC
:1031B00080931E090093200B16C090911F0B8091E5
:1031C0001B0C981738F481E0809320099F5F90933F
:1031D0001F0B17C08091190C982F9150913E08F049
:1031E000EFC080931E0980911E0990E00E94341563
:1031F0000E943C170097A1F481E0809320098093FE
:103200001F0B8093AA0781E090E00E94E316609371
:10321000210B7093220B8093230B9093240BD3C02C
:103220008EEF90E068E170E040E050E00E945C12B8
:1032300086E0C7C09091AA079330F1F4E82FF0E040
:10324000EE0FFF1FE75EF24F20813181211531051E
:1032500081F090911A09992361F00E94690E6093A0
:103260001B0B70931C0B80931D0B90931E0B82E025
:10327000A8C094E09093AA079091AA07943081F493
:10328000841740F48F5F8093200991E09093AA0700
:1032900090E0BBCF87E08093AA0710921E0993C0ED
:1032A000973009F090C080911C09813009F08BC0E3
:1032B00080911B09882321F080911B09823158F0ED
:1032C00080911A09882339F080911A09813118F404
:1032D0000E949F2036C00E94C920181619068CF53E
:1032E00080911A09882369F180911A09813148F582
:1032F00020911E0930E02F513040C9016CE070E090
:103300000E945A2370E044EF5FEF649FC001659F05
:10331000900D749F900D1124820F931F8A30910598
:1033200019F482E090E002C080E090E020911A0958
:1033300021503CE0239F202D1124205E280F209354
:103340001F0980911A098823A9F180911F0990E033
:103350000E94341580911F0980931E0910921F0945
:1033600080911A09882341F080911A09813120F453
:1033700080911A0990E002C080E090E00E94C6208F
:103380000E943C170097B1F481E08093200980935C
:103390001F0B8093AA0781E090E00E94E3166093E0
:1033A000210B7093220B8093230B9093240B10928C
:1033B0001C0909C010921E0910921F0910921C09C5
:1033C00087E08093AA07DF91CF911F910F91FF9023
:1033D00008956F927F928F929F92AF92BF92CF92F9
:1033E000DF92EF92FF920F931F93DF93CF93CDB7AE
:1033F000DEB7A4970FB6F894DEBF0FBECDBF8093A3
:103400001E090E94341507E01CE038EBA32E32E0C1
:10341000B32E21E0822E912CD501CD905D01F801D3
:103420003401019002C0660C771C0A94E2F78F0108
:103430008C2D90E06DE170E0462D50E00E945C1212
:103440007C018130910561F48C2D90E06CE170E09D
:10345000462D50E00E945C127C0181309105D9F02C
:1034600000D00F92EDB7FEB7319688E297E0ADB786
:10347000BEB712969C938E931197C28213820E94BC
:1034800021240F900F900F900F90C7010E94B5124A
:1034900020E030E05FC0BCE009311B0709F0BCCF81
:1034A0000E94690E91E0C92ED12C84E2882E912CC5
:1034B0005E010894A11CB11C05E2602E712C6C0EFB
:1034C0007D1E36C0819191918D939D93A615B70570
:1034D000C9F70E94690EF70186859785B50141E01D
:1034E0000E94FC1B0E94690ED7018D919D917D0168
:1034F000009741F0EFE9FFE03197F1F700C00000DD
:103500000197F6CF0F5F1F4F80911E0C90E00817B8
:1035100019075CF4089DF001099DF00D189DF00D50
:103520001124E15EF34FD501CDCF0894C11CD11C0D
:1035300080911B0C90E08C159D053CF01BE1E12E69
:103540001DE0F12E00E010E0DFCF0E94690E209117
:10355000190C30E0C901A4960FB6F894DEBF0FBE77
:10356000CDBFCF91DF911F910F91FF90EF90DF9032
:10357000CF90BF90AF909F908F907F906F90089565
:1035800080911A0C90E0009711F00E94E1170895C5
:103590000F931F93CF93DF9308EB12E0C0E0D0E0CE
:1035A000F80181918F0190E064E270E00E9477124F
:1035B000FE01EE0FFF1FEB54F44F918380832196A1
:1035C000C231D10569F7DF91CF911F910F91089515
:1035D0009F92AF92BF92CF92DF92EF92FF920F93A2
:1035E0001F93DF93CF93CDB7DEB763970FB6F894F1
:1035F000DEBF0FBECDBF20E06E010894C11CD11C00
:1036000043E1A42EB12CAC0EBD1E01C021E0860109
:1036100038EBE32E32E0F32E9924222321F0F80137
:103620008081813061F4F701808190E06EE270E08A
:103630002B8B0E944112F8018083980E2B890F5F1B
:103640001F4F0894E11CF11C0A151B0531F7992046
:10365000E9F663960FB6F894DEBF0FBECDBFCF91EB
:10366000DF911F910F91FF90EF90DF90CF90BF906F
:10367000AF909F9008952F923F924F925F926F92DA
:103680007F928F929F92AF92BF92CF92DF92EF92F2
:10369000FF920F931F93DF93CF93CDB7DEB7A4971D
:1036A0000FB6F894DEBF0FBECDBF4C010E94C920FB
:1036B000009711F40E94C81ABDE0EB2EBFE0FB2E6C
:1036C000A5E5CA2EAFE0DA2E5E010894A11CB11C5C
:1036D00000E010E0FFEF6F2EF3E07F2E1401442492
:1036E0005524EAE18E2E912CF801EE0FFF1FE752D0
:1036F000F44F80819181F70120813181820F931FE6
:10370000F4E080309F0720F0F7017182608203C0EF
:10371000F70191838083F70180819181F801EE0F99
:10372000FF1FEB54F44F208131812817390740F4F3
:1037300020813181821B930BF5019183808307C027
:1037400020813181281B390BF501318320830E94B0
:10375000C920009751F0F70180819181F801EE0FA7
:10376000FF1FEB54F44F91838083F50161917191B8
:103770005F0180E090E020E533E040E050E00E940F
:103780002F23A20191010E948123F601318320831E
:10379000F4E020303F0718F0F60171826082F601F4
:1037A000808191818A31910510F4918280820F5F2E
:1037B0001F4F82E090E0E80EF91EC80ED91E0231BC
:1037C000110509F091CFA4960FB6F894DEBF0FBE95
:1037D000CDBFCF91DF911F910F91FF90EF90DF90C0
:1037E000CF90BF90AF909F908F907F906F905F90A1
:1037F0004F903F902F900895FF920F931F93CF9378
:10380000DF93042F262F372FF901CDE0DFE0219140
:103810003191299339932FE0C133D207C1F70E9428
:103820003B1B82E190E068EB72E0AE0144525040F5
:1038300025E53FE00E94AE14EC0181309105A1F036
:103840000F920F928BEA97E0ADB7BEB712969C939A
:103850008E9311970E9421240F900F90CE010E9409
:10386000B5122FEF3FEF3EC00130D1F50E94E81AAC
:1038700008EB12E0F801F1908F018F2D90E00E948B
:103880001A12EC01009731F18EEF90E068E170E0E0
:1038900040E050E00E945C1200D000D0EDB7FEB7CF
:1038A00031968EEB97E0ADB7BEB712969C938E9390
:1038B0001197F2821382D583C4830E942124EDB72D
:1038C000FEB736960FB6F894FEBF0FBEEDBF21E0EF
:1038D00030E008C0F2E00A3C1F0761F60E94C81AF7
:1038E00020E030E0C901DF91CF911F910F91FF904F
:1038F000089580E991E06AEE77E041E00E94FC1BC8
:10390000089522E42093C80028E92093C90026E006
:103910002093CA000E9440229B01AC0160E074E247
:1039200084EF99E40E94AA210E9412226150704003
:103930007093C5006093C4008FEF8093CE00109207
:10394000AD0B1092AE0B8FEE9DE16DEA7EE10E9411
:10395000D6239093B00B8093AF0B10921A0910925C
:103960001B0910921D090895AF92BF92CF92DF926A
:10397000EF92FF920F931F93DF93CF9300D000D06D
:10398000CDB7DEB76C0180E198E00E94332400E0FF
:1039900010E07E010894E11CF11CBB24BA94F801EC
:1039A000EE0FFF1FEA5AF54F25913491C701B90177
:1039B0000E94C623C701B6010E94CD230097D9F407
:1039C00000D00F9281E298E0ADB7BEB712969C93FB
:1039D0008E9311971496DC92CE9213970E94212415
:1039E00080911A0980931B0900931A090F900F9078
:1039F0000F900F900DC0083131F480911A09809317
:103A00001B09B0921A090F5F1F4F0931110539F6D2
:103A100080911A098431A1F0853138F4823171F036
:103A20008331A0F48131A9F407C0873159F088317E
:103A300069F0863171F408C08FE109C089E107C0DF
:103A400080EE05C08CE103C08BE101C08AE1809368
:103A50001F0980911A09882391F120911A0900D039
:103A60000F92EDB7FEB731968BE398E0ADB7BEB7D6
:103A700012969C938E931197228313820E94212485
:103A800080911A0981509CE0899F802D1124805ECD
:103A900080931F0920911F09EDB7FEB731968DE481
:103AA00098E0ADB7BEB712969C938E931197228380
:103AB00013820E9421240F900F900F900F908091FD
:103AC0001A0910921D0980911A09853171F420910B
:103AD0001F09EDB7FEB73C970FB6F894FEBF0FBEB7
:103AE000EDBF31968AE698E013C080911A098F3FA6
:103AF00029F120911A098DB79EB70C970FB6F8944B
:103B00009EBF0FBE8DBFEDB7FEB731968DE898E032
:103B1000ADB7BEB712969C938E9311971282138203
:103B200014821582168217821086118622871386C8
:103B30000E942124EDB7FEB73C9620C08DB79EB7FA
:103B40000A970FB6F8949EBF0FBE8DBFEDB7FEB7B4
:103B5000319688EA98E0ADB7BEB712969C938E93E3
:103B60001197128213821482158216821782108690
:103B700011860E942124EDB7FEB73A960FB6F8944D
:103B8000FEBF0FBEEDBF80911A0921E030E08F3FEC
:103B900011F420E030E0C90126960FB6F894DEBF9C
:103BA0000FBECDBFCF91DF911F910F91FF90EF908E
:103BB000DF90CF90BF90AF900895282F392FF90153
:103BC00080E090E008C02091C80025FFFCCF219143
:103BD0002093CE00019686179707ACF30895DF93E4
:103BE000CF930F920F92CDB7DEB7282FCE0101965B
:103BF0002A3031F43DE039832A8362E070E003C06B
:103C0000298361E070E00E94DD1D80E090E00F906C
:103C10000F90CF91DF9108959091AD0B8091AE0BF5
:103C20009817B1F09091AD0B8091AE0B981730F4CE
:103C30002091AE0B8091AD0B30E007C02091AE0B10
:103C40008091AD0B30E020583F4F281B310902C056
:103C500020E030E0C90108951F93182F0E940C1E28
:103C60008F37910591F0E091AE0BF0E0E35DF44FFA
:103C700010838091AE0B8F3719F41092AE0B05C0F4
:103C80008091AE0B8F5F8093AE0B1F9108951F92B2
:103C90000F920FB60F920BB60F9211241F932F9312
:103CA0003F934F935F936F937F938F939F93AF93C4
:103CB000BF93CF93DF93EF93FF931091CE001D300E
:103CC00089F481E080931D098FEF0E942C1EC09122
:103CD000AF0BD091B00B8AE0BE010E94EF1D80E2D5
:103CE000BE0108C0812F0E942C1E6091AF0B709105
:103CF000B00B812F0E94EF1DFF91EF91DF91CF91CB
:103D0000BF91AF919F918F917F916F915F914F91F3
:103D10003F912F911F910F900BBE0F900FBE0F90F0
:103D20001F9018959091AD0B8091AE0B981799F05C
:103D3000E091AD0BF0E0E35DF44F80819091AD0B2D
:103D40009F3719F41092AD0B08959091AD0B9F5FC2
:103D50009093AD0B08958FEF08950E940C1E00976D
:103D6000E1F30E94921E8D3009F48AE090E00895FC
:103D7000CF92DF92EF92FF920F931F93CF93DF9337
:103D8000F82EE92E8B019091AD0B8091AE0B981718
:103D9000E9F00E940C1EC82EE6016E01D92EE60144
:103DA0000C151D050CF4E801C701E92EF82E00E002
:103DB00010E007C00E94921EF70181937F010F5F00
:103DC0001F4F0C171D07B4F38C2F01C080E0DF914B
:103DD000CF911F910F91FF90EF90DF90CF900895BA
:103DE0006F927F928F929F92AF92BF92CF92DF920B
:103DF000EF92FF920F931F93DF93CF93CDB7DEB770
:103E00002C970FB6F894DEBF0FBECDBF80911D0971
:103E1000882309F47CC10E94921EA82E81568A3103
:103E200028F48A2D90E00E94BE23A82EA9820E9429
:103E3000921EB82E81568A3128F48B2D90E00E9474
:103E4000BE23B82E8B2D8F3F11F450E2B52EBA82CF
:103E50000E94921EC82E81568A3128F48C2D90E043
:103E60000E94BE23C82E9C2D9F3F11F440E2C42E19
:103E7000CB820E94921ED82E81568A3128F48D2D35
:103E800090E00E94BE23D82EAD2DAF3F11F430E25A
:103E9000D32EDC821D820E94921E0E940C1E00976F
:103EA000D1F700E010E027E0E22EF12CEC0EFD1E31
:103EB0004E010894811C911C66246A94F801EE0F4F
:103EC000FF1FEA5AF54F25913491C701B9010E94AD
:103ED000C623C701B4010E94CD23009739F4809115
:103EE0001A0980931B0900931A090DC0083131F497
:103EF00080911A0980931B0960921A090F5F1F4F66
:103F000009311105D9F680911A098F3F41F180914D
:103F10001A09813120F180911A098431B1F085317B
:103F200040F4823181F08331B0F4813109F051C025
:103F300008C0873161F0883171F0863109F049C0DD
:103F400008C08FE109C089E107C080EE05C08CE19F
:103F500003C08BE101C08AE180931F093AC08091C0
:103F60001A098823B1F180911A09813190F52091C5
:103F70001A0900D00F92EDB7FEB731968BE398E0A7
:103F8000ADB7BEB712969C938E931197228313827E
:103F90000E94212480911A0981509CE0899F802DE4
:103FA0001124805E80931F0920911F09EDB7FEB791
:103FB00031968DE498E0ADB7BEB712969C938E9380
:103FC0001197228313820E9421240F900F900F904B
:103FD0000F9080911A098F3F91F5BA2DBD3479F574
:103FE0008B2D80538A3058F595E190931A09809370
:103FF0001F098C2D80538A3078F480911F09880F17
:10400000982F990F990F980F90931F0980911F096E
:1040100080538C0D80931F098D2D80538A3078F446
:1040200080911F09880F982F990F990F980F9093DF
:104030001F0980911F0980538D0D80931F091092D5
:104040001D0980911A09853191F420911F098DB7BE
:104050009EB70C970FB6F8949EBF0FBE8DBFEDB7FD
:10406000FEB731968AE698E0ADB7BEB713C080912F
:104070001A098F3F19F120911A09ADB7BEB71C97E5
:104080000FB6F894BEBF0FBEADBFEDB7FEB7319609
:104090008DE898E012969C938E931197A2821382DA
:1040A000B4821582C6821782D08611862287138633
:1040B0000E9421248DB79EB70C961EC0ADB7BEB727
:1040C0001A970FB6F894BEBF0FBEADBFEDB7FEB7DF
:1040D000319688EA98E012969C938E931197A2826B
:1040E0001382B4821582C6821782D08611860E94FE
:1040F00021248DB79EB70A960FB6F8949EBF0FBEC7
:104100008DBF80911A0921E030E08F3F11F420E04B
:1041100030E0C9012C960FB6F894DEBF0FBECDBFBC
:10412000CF91DF911F910F91FF90EF90DF90CF9093
:10413000BF90AF909F908F907F906F900895109256
:10414000B10B1092B20B8FE180931E098FE190E0CA
:104150000E94E9198EEF90E060E370E044E650E0E1
:104160000E9496128130910581F00F920F9287EC98
:1041700098E0EDB7FEB7928381830E9421240F90CF
:104180000F900E94E5110E94B51208958093B10B23
:1041900008958091B10B90E0089580911A098823C9
:1041A00009F493C080911A09813108F08EC0809182
:1041B000B10B8130E9F480911A09873051F4909164
:1041C0001E09933209F481C0973209F47EC09CE63F
:1041D00043C080911A09883009F077C090911E0978
:1041E000913209F472C0953209F46FC09AE734C075
:1041F000873081F480911A09883029F080911A095A
:10420000813009F062C080911E098F3609F45DC0CB
:1042100084E211C0883099F480911A09873029F01E
:1042200080911A09813009F050C080911E098937A8
:1042300009F44BC086E280931E0981E041C08230C0
:10424000E9F480911A09893051F490911E099D3248
:10425000E1F19133D1F196E890931E0931C080913C
:104260001A098A3091F580911E098F3271F18333DA
:1042700061F180E980931E098AE022C0893071F4DF
:1042800080911A098A3021F080911A098230E9F46C
:1042900080911E098538C9F082E30FC08A30A9F4E5
:1042A00080911A09893021F080911A09823069F4CD
:1042B00080911E09833949F080E380931E0982E0D2
:1042C0008093B10B21E030E002C020E030E0C90172
:1042D00008959C01019782309105C0F480911809DE
:1042E000909119098333910570F18091160990918D
:1042F00017098333910538F180911A0980931B09BE
:1043000081E080931A092FEF3FEF22C02F5F3F4FCC
:1043100022303105D8F4809118099091190984311F
:10432000910538F080911609909117098431910513
:1043300068F480911A0980931B0983E080931A091D
:1043400021E030E005C022E030E002C020E030E0B3
:10435000C90108950CD0E6C0DED040F0D5D030F0D1
:1043600021F45F3F19F0C7C0511110C1CAC0EBD092
:1043700098F39923C9F35523B1F3951B550BBB272C
:10438000AA2762177307840738F09F5F5F4F220FD9
:10439000331F441FAA1FA9F333D00E2E3AF0E0E8D2
:1043A00030D091505040E695001CCAF729D0FE2F1E
:1043B00027D0660F771F881FBB1F261737074807B0
:1043C000AB07B0E809F0BB0B802DBF01FF27935866
:1043D0005F4F2AF09E3F510568F08DC0D7C05F3F08
:1043E000ECF3983EDCF3869577956795B795F7954E
:1043F0009F5FC9F7880F911D9695879597F9089546
:10440000E1E0660F771F881FBB1F621773078407E1
:10441000BA0720F0621B730B840BBA0BEE1F88F7F0
:10442000E095089598D088F09F5790F0B92F99277C
:10443000B751A0F0D1F0660F771F881F991F1AF0AF
:10444000BA95C9F712C0B13081F09FD0B1E008959C
:104450009CC0672F782F8827B85F39F0B93FCCF31D
:10446000869577956795B395D9F73EF490958095A5
:10447000709561957F4F8F4F9F4F0895E89409C0C5
:1044800097FB3EF490958095709561957F4F8F4F87
:104490009F4F9923A9F0F92F96E9BB279395F6959D
:1044A000879577956795B795F111F8CFFAF4BB0F1B
:1044B00011F460FF1BC06F5F7F4F8F4F9F4F16C07F
:1044C000882311F096E911C0772321F09EE8872F09
:1044D000762F05C0662371F096E8862F70E060E0C5
:1044E0002AF09A95660F771F881FDAF7880F96953E
:1044F000879597F9089597F99F6780E870E060E0E5
:1045000008959FEF80EC089500240A94161617066C
:1045100018060906089500240A94121613061406B4
:1045200005060895092E0394000C11F4882352F017
:10453000BB0F40F4BF2B11F460FF04C06F5F7F4FCF
:104540008F4F9F4F089557FD9058440F551F59F0B6
:104550005F3F71F04795880F97FB991F61F09F3F70
:1045600079F087950895121613061406551FF2CF99
:104570004695F1DF08C0161617061806991FF1CFE9
:1045800086957105610508940895E894BB27662710
:104590007727CB0197F908950BD0C4CFB5DF28F06A
:1045A000BADF18F0952309F0A6CFABCF1124EECFD8
:1045B000CADFA0F3959FD1F3950F50E0551F629F7E
:1045C000F001729FBB27F00DB11D639FAA27F00D6C
:1045D000B11DAA1F649F6627B00DA11D661F829F93
:1045E0002227B00DA11D621F739FB00DA11D621F78
:1045F000839FA00D611D221F749F3327A00D611D95
:10460000231F849F600D211D822F762F6A2F112476
:104610009F5750408AF0E1F088234AF0EE0FFF1FC9
:10462000BB1F661F771F881F91505040A9F79E3F00
:10463000510570F060CFAACF5F3FECF3983EDCF3FA
:10464000869577956795B795F795E7959F5FC1F73D
:10465000FE2B880F911D9695879597F90895629F77
:10466000D001739FF001829FE00DF11D649FE00D6A
:10467000F11D929FF00D839FF00D749FF00D659FCB
:10468000F00D9927729FB00DE11DF91F639FB00DCA
:10469000E11DF91FBD01CF0111240895991B79E097
:1046A00004C0991F961708F0961B881F7A95C9F7C2
:1046B00080950895AA1BBB1B51E107C0AA1FBB1F11
:1046C000A617B70710F0A61BB70B881F991F5A959E
:1046D000A9F780959095BC01CD01089597FB092E0F
:1046E00007260AD077FD04D0E5DF06D000201AF4B3
:1046F000709561957F4F0895F6F7909581959F4F3E
:104700000895A1E21A2EAA1BBB1BFD010DC0AA1F12
:10471000BB1FEE1FFF1FA217B307E407F50720F02A
:10472000A21BB30BE40BF50B661F771F881F991FA5
:104730001A9469F760957095809590959B01AC01EE
:10474000BD01CF01089597FB092E05260ED057FD18
:1047500004D0D7DF0AD0001C38F45095409530952E
:1047600021953F4F4F4F5F4F0895F6F790958095F5
:10477000709561957F4F8F4F9F4F089591110895C8
:1047800081568A5108F4805285580895FB01DC0156
:1047900005900D920020E1F70895FB01DC018D9159
:1047A000019080190110D9F3990B08950F931F936D
:1047B000CF93DF938C01EB01009711F42097C9F19F
:1047C00081E090E06EE070E00E947A26FC019C019E
:1047D000009789F180E88383209771F0D387C2879F
:1047E00081E883838091790F90917A0F009721F46B
:1047F000F0937A0FE093790F01151105E1F011871D
:10480000008783818260838380917B0F90917C0FEE
:10481000009789F4F0937C0FE0937B0F80917D0FDC
:1048200090917E0F009739F4F0937E0FE0937D0F07
:1048300002C020E030E0C901DF91CF911F910F91BC
:104840000895DF93CF93CDB7DEB7FE013696619121
:10485000719180917B0F90917C0FAF010E946A242F
:10486000CF91DF910895EF92FF920F931F93CF9313
:10487000DF938C01E0917B0FF0917C0F838181FFAE
:104880001FC0C0E0D0E00AC0DB011896ED91FC919A
:1048900019971995009711F0CFEFDFEFF80181918B
:1048A0008F0160917B0F70917C0F882369F7DB018A
:1048B0001896ED91FC9119978AE01995009711F0DF
:1048C000CFEFDFEFCE01DF91CF911F910F91FF90DE
:1048D000EF9008952F923F924F925F926F927F9246
:1048E0008F929F92AF92BF92CF92DF92EF92FF9200
:1048F0000F931F93DF93CF93CDB7DEB72C970FB6EF
:10490000F894DEBF0FBECDBF6C011B018A01FC0114
:1049100017821682838181FFD1C12E010894411C28
:10492000511CF6019381F10193FD859193FF8191D3
:104930001F01882309F4BEC1853239F493FD8591A6
:1049400093FF81911F01853229F490E0B6010E9406
:10495000EF27E7CFEE24FF2420E02032B0F48B32A3
:1049600069F08C3228F4803251F0833271F40BC03C
:104970008D3239F0803349F421602CC022602460EC
:1049800029C0286027C0206125C027FD2CC0382FF2
:1049900030533A3098F426FF08C08E2D880FE82E49
:1049A000EE0CEE0CE80EE30E15C08F2D880FF82EDE
:1049B000FF0CFF0CF80EF30E20620CC08E3221F4B7
:1049C00026FD78C1206406C08C3611F4206802C030
:1049D000883649F4F10193FD859193FF81911F0180
:1049E000882309F0BACF982F9554933018F090523D
:1049F000933028F40C5F1F4FFFE3F9830DC083361B
:104A000031F0833771F0833509F060C022C0F801BE
:104A1000808189830E5F1F4F420171E0A72EB12C68
:104A200016C062E0662E712C600E711EF801808047
:104A3000918026FF03C06E2D70E002C06FEF7FEF04
:104A4000C4012C870E94E4275C0183012C852F7709
:104A500017C052E0652E712C600E711EF801808027
:104A6000918026FF03C06E2D70E002C06FEF7FEFD4
:104A7000C4012C870E94D2275C012C852068830109
:104A800023FD20C008C080E290E0B6012C870E9480
:104A9000EF27FA942C858F2D90E0A816B90698F38D
:104AA00011C0F40127FD859127FF81914F0190E00E
:104AB000B6012C870E94EF272C85F110FA940894F8
:104AC000A108B108A114B10461F7F1C0843611F056
:104AD000893649F527FF08C0F8016081718182811C
:104AE00093810C5F1F4F09C0F80160817181882795
:104AF00077FD8095982F0E5F1F4F4FE6B42EB222A0
:104B000097FF09C090958095709561957F4F8F4F65
:104B10009F4FF0E8BF2AA2012AE030E00E941B2844
:104B2000782E741845C0853731F43FEEB32EB2228B
:104B30002AE030E025C099EFB92EB2228F36C1F0BD
:104B4000803720F4883509F0B5C00DC0803721F0DA
:104B5000883709F0AFC002C020E1B22AB4FE0BC012
:104B600084E0B82A08C0B4FE09C0E6E0BE2A06C048
:104B700028E030E005C020E130E002C020E132E072
:104B8000B7FE08C0F80160817181828193810C5F5A
:104B90001F4F07C0F8016081718180E090E00E5FD7
:104BA0001F4FA2010E941B28782E7418FFE7BF2216
:104BB000B6FE0BC02EEFB2227E1438F4B4FE07C04E
:104BC000B2FC05C08FEEB82202C0A72C01C0AE2CEB
:104BD0008B2D90E0B4FE0DC0FE01E70DF11D20818C
:104BE000203319F4E9EEBE2209C0A394B2FE06C038
:104BF00004C086789070009709F0A3948B2C9924B8
:104C0000B3FC14C0B0FE0FC0AF1428F4E72CEF0CB7
:104C1000EA18AF2C08C0E72C06C080E290E0B6018D
:104C20000E94EF27A394AF14C0F304C0AF1410F494
:104C3000FA1801C0FF2484FE0FC080E390E0B601A3
:104C40000E94EF2782FE1FC081FE03C088E590E02E
:104C500010C088E790E00DC0C4018678907000977E
:104C600091F081FC02C080E201C08BE2B7FC8DE2D2
:104C700090E0B6010E94EF2706C080E390E0B60105
:104C80000E94EF27EA947E14C0F37A94F201E70DB4
:104C9000F11D808190E0B6010E94EF277720A9F7EF
:104CA00006C080E290E0B6010E94EF27FA94FF2050
:104CB000C1F737CEF6012681378102C02FEF3FEFD3
:104CC000C9012C960FB6F894DEBF0FBECDBFCF91B1
:104CD000DF911F910F91FF90EF90DF90CF90BF90E9
:104CE000AF909F908F907F906F905F904F903F908C
:104CF0002F900895EF92FF920F931F93CF93DF931E
:104D0000689F8001699F100D789F100D1124C801C4
:104D10000E949F26E82EE7017E01F92EE7012097E9
:104D200031F08E2D60E070E0A8010E94DD27CE01F9
:104D3000DF91CF911F910F91FF90EF900895CF9346
:104D4000DF938230910510F482E090E0E091810FD2
:104D5000F091820F40E050E020E030E026C060811A
:104D6000718168177907E0F06817790781F482810B
:104D700093812115310531F0D90113969C938E93BF
:104D800012972BC09093820F8093810F26C04115FC
:104D9000510519F06417750718F4AB01E901DF013B
:104DA0009F0172816381E72FF62F3097C1F641157D
:104DB000510501F1481B590B4430510580F41296FE
:104DC0008D919C911397209719F09B838A8304C03F
:104DD0009093820F8093810FFD01329646C0FD01B2
:104DE000E40FF51F819391934250504011965C93CC
:104DF0004E933BC020917F0F3091800F21153105DC
:104E000041F42091E1083091E2083093800F209323
:104E10007F0F2091E3083091E4082115310541F41A
:104E20002DB73EB74091DF085091E008241B350BA9
:104E3000E0917F0FF091800FE217F307A0F42E1B93
:104E40003F0B2817390778F0AC014E5F5F4F2417EE
:104E5000350748F04E0F5F1F5093800F40937F0F30
:104E60008193919302C0E0E0F0E0CF01DF91CF9118
:104E70000895CF93DF93009709F491C0FC01329716
:104E8000138212826091810F7091820F61157105FA
:104E900081F420813181280F391F80917F0F9091FB
:104EA000800F8217930799F5F093800FE0937F0F9F
:104EB00076C0DB0180E090E002C0CD01D901AE17E1
:104EC000BF0748F412962D913C9113972115310597
:104ED000A1F7CD0121C0B383A283EF01499159917C
:104EE0009E01240F351FA217B30779F42D913C9131
:104EF0001197240F351F2E5F3F4F31832083129669
:104F00002D913C91139733832283009729F4F093DA
:104F1000820FE093810F43C0DC011396FC93EE9364
:104F200012974D915D91A40FB51FEA17FB0769F425
:104F300020813181240F351F2E5F3F4FEC013983D3
:104F40002883228133813B832A83E0E0F0E002C0A2
:104F5000FB01BC01DB0112968D919C911397009788
:104F6000B9F79B012E5F3F4F8D919C911197820F56
:104F7000931F40917F0F5091800F4817590779F484
:104F8000309729F41092820F1092810F02C0138281
:104F90001282225030403093800F20937F0FDF9198
:104FA000CF910895FC010590615070400110D8F731
:104FB000809590958E0F9F1F0895DC0101C06D9321
:104FC00041505040E0F70895FC016150704001905D
:104FD0000110D8F7809590958E0F9F1F08950F931D
:104FE0001F93CF93DF938C01EB018B8181FF1BC05B
:104FF00082FF0DC02E813F818C819D81281739074A
:1050000064F4E881F9810193F983E88306C0E885B7
:10501000F985802F1995009731F48E819F81019633
:105020009F838E8302C00FEF1FEFC801DF91CF91E6
:105030001F910F910895FA01AA27283051F12031CC
:1050400081F1E8946F936E7F6E5F7F4F8F4F9F4F1C
:10505000AF4FB1E03ED0B4E03CD0670F781F891F5E
:105060009A1FA11D680F791F8A1F911DA11D6A0F2C
:10507000711D811D911DA11D20D009F468943F91DF
:105080002AE0269F11243019305D3193DEF6CF01DE
:105090000895462F4770405D4193B3E00FD0C9F7A4
:1050A000F6CF462F4F70405D4A3318F0495D31FD11
:1050B0004052419302D0A9F7EACFB4E0A695979564
:1050C000879577956795BA95C9F70097610571053A
:1050D00008959B01AC010A2E069457954795379584
:1050E0002795BA95C9F7620F731F841F951FA01DDE
:0650F0000895F894FFCFC3
:1050F6008813460050005F0073009600AF00CD0095
:10510600F5003601C7017102500046003C0032002E
:1051160028001E00190014000F000A000500494E61
:105126004349414E444F000A42696F6C6F696420DF
:105136004320436F6E74726F6C2056302E340042DB
:105146006174746572792C204779726F20582C200F
:105156005920416363656C20582C20592043656EA5
:10516600746572203D202569202569202569202542
:1051760069202569200A000A526561647920666FF4
:105186007220636F6D6D616E642E0A3E2000000111
:1051960001010101010101010101010101010101F9
:1051A60001000000000000000102030405060708D4
:1051B600090A0B0C0D0E0F1011120101010101015C
:1051C600040400D007F4010F009C01B501CF01EAE9
:1051D6000107022602470269028E02B502DE020AB2
:1051E60003434F4D4D5F54584641494C3A20466162
:1051F600696C6564207472616E736D697474696E2E
:105206006720696E737472756374696F6E2070615E
:10521600636B65742100434F4D4D5F5458455252A0
:105226004F523A20496E636F727265637420696EDD
:10523600737472756374696F6E207061636B6574E5
:105246002100434F4D4D5F52584641494C3A204646
:1052560061696C656420746F20676574207374617E
:10526600747573207061636B65742066726F6D2050
:105276006465766963652100434F4D4D5F5258570B
:10528600414954494E473A2057616974696E67200F
:10529600746F2072656365697665207374617475D1
:1052A60073207061636B65742100434F4D4D5F52EF
:1052B6005854494D454F55543A205374617475738B
:1052C600207061636B6574206E6F74207265636510
:1052D600697665642100434F4D4D5F5258434F52E6
:1052E600525550543A20496E636F7272656374204A
:1052F600737461747573207061636B6574210055F6
:105306006E6B6E6F776E206572726F7220636F645C
:105316006521000A486172647761726520436F6E89
:1053260066696775726174696F6E204661696C752E
:1053360072652061742044796E616D6978656C20B0
:1053460049442025692E0A000A44584C5F414C41C5
:10535600524D5F4C45442042726F616463617374C1
:10536600202D20000A44584C5F54454D504552416B
:10537600545552455F4C494D49542042726F616401
:1053860063617374202D20000A44584C5F4C4F57BC
:105396005F564F4C544147455F4C494D4954204256
:1053A600726F616463617374202D20000A44584C47
:1053B6005F43575F434F4D504C49414E43455F4D08
:1053C600415247494E2042726F6164636173742093
:1053D6002D20000A44584C5F4343575F434F4D50BE
:1053E6004C49414E43455F4D415247494E2042721A
:1053F6006F616463617374202D20000A44584C5F0A
:10540600544F525155455F454E41424C45204272DC
:105416006F616463617374202D2000496E7075742A
:1054260020766F6C74616765206572726F722100F9
:10543600416E676C65206C696D6974206572726F68
:105446007221004F76657268656174206572726FAD
:105456007221004F7574206F662072616E67652039
:105466006572726F722100436865636B73756D2098
:105476006572726F7221004F7665726C6F6164207F
:105486006572726F722100496E7374727563746906
:105496006F6E20636F6465206572726F7221000102
:1054A600000A436F6E66696775726174696F6E2074
:1054B6006F6620656E61626C65642041582D3132DD
:1054C60020736572766F7320646F6573206E6F74D8
:1054D600206D61746368206D6F74696F6E2E682E1F
:1054E6002041424F525421000A4E756D626572206A
:1054F6006F6620616374697665206D6F74696F6E7F
:1055060020706167657320646F6573206E6F742009
:105516006D61746368206D6F74696F6E2E682E20DE
:1055260041424F525421000A556E7061636B204D03
:105536006F74696F6E20506167652025692C205352
:10554600746570202569202D207275626269736802
:1055560020646174612E2053544F502E000A536507
:1055660072766F20494425692C2053746570205645
:10557600616C7565203D2025692C204D696E203DA6
:105586002025692C204D6178203D202569200A00C0
:105596000A7365744D6F74696F6E506167654A6F03
:1055A600696E74466C65786962696C6974792043C2
:1055B60043572049442569202D20000A7365744D00
:1055C6006F74696F6E506167654A6F696E74466C79
:1055D60065786962696C6974792043572049442566
:1055E60069202D20000A657865637574654D6F74B2
:1055F600696F6E53657175656E636520416C617286
:105606006D2049442569202D204572726F72204312
:105616006F64652025690A00657865637574654D54
:105626006F74696F6E204A6F696E7420466C657878
:10563600202569202D200000010101010101010141
:10564600010101010101010101010000000000004A
:1056560000112802500200029F020002C702000247
:1056660000021302BE02810200021402B402820288
:1056760067031D033B03AF01D8016001FF01380139
:10568600B100FF01FF014101EC01FF017E014B0169
:10569600EC010002E701F8010002070A6D6F76656A
:1056A600546F476F616C506F7365202D20000A6D33
:1056B6006F7665546F476F616C506F736520416CF0
:1056C60061726D2049442569202D204572726F72E2
:1056D60020436F64652025690A00EB001403170157
:1056E600E802CE01310266019A02FB01040255016D
:1056F600AA02F0000F0387027801FB010402900161
:10570600456E74726F20616C2073697374656D6188
:1057160000456E636F6E74726F20636F69636964B0
:10572600656E636961200A2025730056616C6F728D
:1057360020636F6D616E646F2025690A0056616C87
:105746006F7220706167696E61206E657874206D76
:105756006F74696F6E2025690A00256325632563CA
:105766002563202D204D6F74696F6E506167654308
:105776006F6D6D616E642025690A3E2000256325E4
:105786006325632563202D20436F6D6D616E642054
:10579600232025690A3E20002563256325632563AA
:1057A600200A556E6B6E6F776E20436F6D6D616E5E
:1057B6006421200A3E20000A44584C5F50554E434F
:1057C600482042726F616463617374202D2000204B
:0657D60000830F0000003B
:00000001FF
