:100000000C9444050C94A2090C9465050C946505A8
:100010000C9465050C94BB090C94D4090C94ED095F
:100020000C94060A0C9465050C9465050C94650502
:100030000C9465050C9465050C9465050C94650598
:100040000C9465050C9465050C947B0A0C9465056D
:100050000C941F0D0C9465050C9465050C94B80D5B
:100060000C9465050C947C0F0C9465050C94650547
:100070000C9465050C9465050C9465050C94650558
:100080000C9465050C9465050C9465050C94650548
:100090000C943B1E0C9465050C9465050C94650549
:1000A0000C9465050C9465050C9465050C94650528
:1000B0000C9465050C9465050C9465050C94650518
:1000C0000C9465050C9465050C946505214C31363E
:1000D00020636465666761623E636261676665644A
:1000E000630054323430204C3820612067616661EF
:1000F0006561646120632B61646165616661004FC5
:100100003620543430204C31362064233C623C6627
:10011000233C64233C66233C626423662300212045
:100120004F36204C3136206463643C622D643C6160
:10013000643C6720643C662B643C67643C61643CBF
:10014000622D0021204F332054343020662E622E41
:10015000662E622E662E622E662E622E0005050524
:100160000505050505050505050505050505050044
:1001700000010A200100021080000210800002101D
:10018000800002108000021080000210800000E851
:100190000305050505050505050505050505050511
:1001A0000505050000020A20029B011080BD0ACA55
:1001B00098410110809B1993AF6CA2D55232C2CFE7
:1001C000799B011080BD0ACA98410110809B199348
:1001D000AF80A2D55232C2CF7900000000E803E818
:1001E00003050505050505050505050505050505C1
:1001F0000505050000011B20069CC10E8AFF0110A9
:1002000099000210809C2113808202108024DB550B
:10021000959C31926EFF011099000210809C211371
:10022000808202108024DB55959CC10E8AFF01104C
:1002300099000210809C2113808202108024DB55DB
:10024000959C31926EFF011099000210809C211341
:10025000808202108024DB55959CC10E8AFF01101C
:1002600099000210809C2113808202108024DB55AB
:10027000959C81D26BFF011099000210809C211384
:1002800080820210801E6397A600000000200000FC
:100290000000000000F8073801380138013801F883
:1002A00007050505050505050505050505050505FC
:1002B0000505050000010A20019C81D26BFF011099
:1002C00099000210809C211380820210801E639787
:1002D000A60000E803050505050505050505050556
:1002E000050505050505050000010A20029C011011
:1002F00080FF011099000210809C2113808202105F
:10030000808FEAD8C89C81D26BFF0110990002103F
:10031000809C211380820210801E6397A60000003B
:10032000008806C80205050505050505050505053E
:10033000050505050505050000011020039CF90FC2
:10034000808BA20B99BA0110809C215391820210DC
:10035000805FD253A29C011080C7C2099988011006
:1003600080C4E1919B82620F8537EAD8D99CF90F4E
:10037000808BA20B99BA0110809C215391820210AC
:1003800080E49296A31800D0010000E8034800E83A
:10039000030505050505050505050505050505050F
:1003A0000505050000010F20049CF90F80A9B20A81
:1003B00099920110809C21939B82021080A4EA14E0
:1003C000CB9CF90F8095520B999C0110809C2113B6
:1003D0009982021080FB7A17B09CF90F808BA20BD8
:1003E00099A60110809C219396820210803B0B17E6
:1003F0009C9CF90F808BA20B99BA0110809C215311
:100400009182021080E49296A30000000000000098
:1004100000D805E803E803E803050505050505051B
:1004200005050505050505050505050000010F2065
:1004300004F581126C4502D0A7B9F9CF7FF50954B4
:1004400087822AD27F24DB5595F581126CFFD1CDAE
:10045000A7E1F9CF7FF509549682FA4F6E24DB5558
:10046000956081126CFFD18D82E20110807E5190E7
:10047000918202906E24DB55956081126C4502904A
:1004800082A60110807E5190878232128024DB5533
:10049000950000000000000000D0006800D800684F
:1004A0000005050505050505050505050505050501
:1004B0000505050000010A2004F581126C4502D0F3
:1004C000A7B9F9CF7FF5095487822AD27F24DB555B
:1004D00095F581126CFFD1CDA7E1F9CF7FF50954D5
:1004E0009682FA4F6E24DB55956081126CFFD18D98
:1004F00082E20110807E5190918202906E24DB5541
:10050000956081126C45029082A60110807E519008
:10051000878232128024DB55950000000000000025
:1005200000D0006800D80068000505050505050530
:10053000050505050505050505050500000104205F
:1005400004F581126C4502D0A7B9F9CF7FF509D423
:100550007F822AD27F24DB5595F581126CFFD1CDA5
:10056000A713FACF7FF509549682FA4F6E24DB5514
:10057000956081126CFFD18D82000210807E5190B7
:10058000918202906E24DB55956081126C45029039
:1005900082A60110807E51107B8232128024DB55AE
:1005A000950000000000000000D800D800D800D856
:1005B00000050505050505050505050505050505F0
:1005C0000505050000010F20046081126C450290B2
:1005D00082A60110807E5190878232128024DB55E2
:1005E000956081126CFFD18D82E20110807E519066
:1005F000918202906E24DB5595F581126CFFD1CD6E
:10060000A7E1F9CF7FF509549682FA4F6E24DB55A6
:1006100095F581126C4502D0A7B9F9CF7FF5095441
:1006200087822AD27F24DB5595000000000000005D
:10063000006800D8006800D000050505050505051F
:1006400005050505050505050505050000010A2048
:10065000046081126C45029082A60110807E519048
:10066000878232128024DB55956081126CFFD18D18
:1006700082E20110807E5190918202906E24DB55BF
:1006800095F581126CFFD1CDA7E1F9CF7FF5095423
:100690009682FA4F6E24DB5595F581126C4502D097
:1006A000A7B9F9CF7FF5095487822AD27F24DB5579
:1006B0009500000000000000006800D8006800D02D
:1006C00000050505050505050505050505050505DF
:1006D0000505050000010420046081126C450290AC
:1006E00082A60110807E5190878232128024DB55D1
:1006F000956081126CFFD18D82E20110807E519055
:10070000918202906E24DB5595F581126CFFD1CD5C
:10071000A7E1F9CF7FF509549682FA4F6E24DB5595
:1007200095F581126C4502D0A7B9F9CF7FF5095430
:1007300087822AD27F24DB5595000000000000004C
:1007400000D800D800D800D000050505050505052E
:1007500005050505050505050505051300010F201F
:10076000059C81126C00D20D80000210809C211328
:10077000808202906E24DB55956981126CFFC9CD91
:100780007FFFF9CF7F9BF9CF7F82FA4F6E24DB5535
:10079000956A81126C00021080000210809C01108A
:1007A000808202108024DB55956A81126C00021051
:1007B00080BA0110809C0110808202108024DB55D9
:1007C000950082126C00021080BA0110809C2113E7
:1007D000808202108024DB5595000000000000009C
:1007E0000000004800480048004800480005050592
:1007F00005050505050505050505050505050500AE
:1008000000010F20050082126C000210800002100F
:10081000809C2193918202108024DB5595008212E6
:100820006C000290A50002108000229391820210B9
:100830008024DB55950082126C000290A500021006
:1008400080002213808202108024DB5595008212E2
:100850006C460290A50002108000221380823212A2
:100860008024DB55950082126C460210990002101C
:10087000809C2113808232128024DB559500000079
:100880000000000000000048004800480048004800
:10089000000505050505050505050505050505050D
:1008A0000505051600010F20050082126C46021096
:1008B00099000210809C2113808232128024DB5523
:1008C000950082126C460290A5000210800022134F
:1008D000808232128024DB55950082126C000290D7
:1008E000A500021080002213808202108024DB55B4
:1008F000950082126C000290A500021080002293E5
:10090000918202108024DB55950082126C00021047
:1009100080000210809C2193918202108024DB557C
:10092000950000000000000000000048004800485A
:1009300000480048000505050505050505050505F0
:10094000050505050505050000010F2005008212BB
:100950006C00021080BA0110809C2113808202106A
:100960008024DB55956A81126C00021080BA011058
:10097000809C0110808202108024DB55956A8112D0
:100980006C00021080000210809C01108082021016
:100990008024DB55956A81126C00D20D8000021014
:1009A000809C0110808202906E24DB55959C811200
:1009B0006C00D20D80000210809C21138082029076
:1009C0006E24DB5595000000000000000000004888
:1009D00000480048004800480053544F5000574614
:1009E0005744005742574400574C54200057525424
:1009F0002000574C534400575253440057464C5321
:100A000000574652530057424C530057425253002E
:100A100057414C2000574152200057464C54005734
:100A20004652540057424C540057425254005752B9
:100A3000445900534954200053544E440042414C01
:100A400020004D2020200046475550004247555079
:100A5000005253455400D909DE09E309E809ED09BC
:100A6000F209F709FC09010A060A0B0A100A150A1D
:100A70001A0A1F0A240A290A2E0A330A380A3D0ACA
:100A8000420A470A4C0A510A11241FBECFEFD1E295
:100A9000DEBFCDBF00E00CBF18E0A0E0B2E0EAEDA1
:100AA000F0E500E00BBF02C007900D92AA37B10736
:100AB000D9F71DE0AAE7B8E001C01D92A737B1073A
:100AC000E1F70E9419090C946B280C94000088230C
:100AD00021F480917C008F7D03C080917C00806236
:100AE00080937C00089580917C008295869581702A
:100AF00008950E947305882321F02091790030E049
:100B000004C02091780030917900C90108951F93A5
:100B1000DF93CF9300D0CDB7DEB7BC0180E090E08B
:100B2000209100023091010240E050E00E94212318
:100B3000182F69837A839B830E94730569817A8168
:100B40009B81882371F09B01412F592FCA01B90164
:100B500061587F4F8F4F9F4F2FEF30E040E050E0C4
:100B60000DC09B01412F592FCA01B90161507E4F21
:100B70008F4F9F4F2FEF33E040E050E00E947323F0
:100B8000C9010F900F900F90CF91DF911F910895A1
:100B90000E947305882331F08091790090E00E94D3
:100BA0008705089580917800909179000E948705CB
:100BB0000895A2E0B2E0E0E003C0EF5FEB3081F027
:100BC0002D913D9182179307C0F7EE2359F0EB303A
:100BD00059F0F0E0EE0FFF1FE85EFD4F80810895B1
:100BE00085E0089580E5089585E008950F931F93AB
:100BF000CF93DF9380919C0890919D0829E28430E7
:100C0000920768F483E491E00E947D0D8091AE0824
:100C10008093AF0882E18093AE0889E15AC00091C9
:100C200094081091950880919E0890919F08081B48
:100C3000190B10937B0800937A08C0919608D09105
:100C400097088091A0089091A108C81BD90BD09358
:100C50007D08C0937C088091920890919308209120
:100C6000A6083091A708821B930B9093A30880934A
:100C7000A20880919008909191082091A808309145
:100C8000A908821B930B9093A5088093A4088091D8
:100C90009A0890919B08959587959595879590933F
:100CA000AB088093AA0880919808909199080E94B7
:100CB000D90590E09093AD088093AC080B3A1105EC
:100CC0006CF08091AE088093AF0887E18093AE0806
:100CD0008CE18093B30821E030E063C08FEF0635EC
:100CE00018074CF48091AE088093AF0886E180939A
:100CF000AE088BE1EECFC801880F991F880F991FAE
:100D000066E370E00E946023FB019B01220F331F0A
:100D1000260F371FCE01880F991F880F991F68E291
:100D200070E00E946023AB01440F551F80E090E00B
:100D3000ADE6BBE0EC01CC0FDD1FCA0FDB1F198253
:100D4000188201968231910599F75996FC93EE939A
:100D500058975D963C932E935C97F095E195FF4FE5
:100D60005B96FC93EE935A97309521953F4F5F9693
:100D70003C932E935E9751967C936E935097539627
:100D80007C936E93529788279927841B950B919695
:100D90009C938E93909793969C938E93929720E03A
:100DA00030E0C901DF91CF911F910F91089580919B
:100DB0007A0082958695869581700895873010F027
:100DC0008E3179F497E890937A0090917C0090644A
:100DD0009076982B90937C0080917A008064809329
:100DE0007A0008950E94DE060E94D7068823E1F764
:100DF0000E94790508950E94DE060E94D706882386
:100E0000E1F70E94C8050895CF92DF92EF92FF921A
:100E10000F931F93CF93DF93EB010E94DE060E9496
:100E2000D7068823E1F78E01CC24DD24760180915A
:100E30007A00806480937A000E94D7068823E1F7C5
:100E40000E947905A0E0B0E0C80ED91EEA1EFB1E84
:100E50000150104061F7CE0196958795C034D105B9
:100E600040F48C0D9D1D6C2F70E00E944C23CB0133
:100E70000DC0BC0180E090E06C0D7D1D8E1D9F1D9E
:100E80009E0140E050E00E947323C901DF91CF91A1
:100E90001F910F91FF90EF90DF90CF9008950E94E7
:100EA00004070E9487050895909301028093000231
:100EB00008951F93CF93DF930E947305182F80E04E
:100EC0000E9467058EE164E170E00E9404078EE1F4
:100ED00064E170E00E940407EC01812F0E94670525
:100EE000BE017695679580E090E06C54744D8E4E0F
:100EF0009F4F9E0140E050E00E947323C901DF91A3
:100F0000CF911F910895EF92FF921F93CF93DF939C
:100F10000E947305182F80E00E94670580E065E05D
:100F200070E00E944F07EC01812F0E946705CC0FF3
:100F3000DD1FCC0FDD1FCE01DF91CF911F91FF9000
:100F4000EF9008951F93CF93DF930E9459079093DA
:100F50000102809300020E94830790939D08809372
:100F60009C080E94000E6093860870938708809307
:100F700088089093890810929F0810929E081092FA
:100F8000A1081092A0081092A7081092A60810922B
:100F9000A9081092A80810E18091A702813079F485
:100FA000C0919E08D0919F0883E06CE070E00E94A1
:100FB0000407C80FD91FD0939F08C0939E08809143
:100FC000A802813079F4C091A008D091A10884E0F2
:100FD0006CE070E00E940407C80FD91FD093A108ED
:100FE000C093A0088091A602813079F4C091A60830
:100FF000D091A70882E06CE070E00E944F07C80F14
:10100000D91FD093A708C093A6088091A50281306C
:1010100071F4C091A808D091A9086CE070E00E941A
:101020004F07C80FD91FD093A908C093A8088FE312
:101030009FE10197F1F700C00000115009F0ACCF1B
:1010400080919E0890919F0834E0969587953A95F7
:10105000E1F790939F0880939E088091A00890915B
:10106000A10824E0969587952A95E1F79093A10829
:101070008093A0088091A6089091A70814E0969507
:1010800087951A95E1F79093A7088093A608809119
:10109000A8089091A908B4E096958795BA95E1F7CC
:1010A0009093A9088093A8080E94000E60937E0880
:1010B00070937F088093800890938108DF91CF918F
:1010C0001F9108950E94000E209186083091870894
:1010D0004091880850918908621B730B840B950B13
:1010E000683E23E0720720E0820720E0920780F04C
:1010F0000E94830790939D0880939C080E94000E95
:101100006093860870938708809388089093890875
:101110000E94000E20917E0830917F084091800847
:1011200050918108621B730B840B950B6031710524
:101130008105910508F46EC08091A702813039F4D1
:1011400083E00E94F2069093950880939408809122
:10115000A802813039F484E00E94F2069093970847
:10116000809396088091A602813039F482E00E9433
:10117000FB0690939308809392088091A50281309A
:1011800031F40E94FB0690939108809390080E948E
:10119000000E20918208309183084091840850917C
:1011A0008508621B730B840B950B643F21E072076B
:1011B00020E0820720E0920700F18091A9028130AF
:1011C00039F485E00E94F20690939908809398087C
:1011D0008091AA02813039F486E00E94FB06909348
:1011E0009B0880939A080E94000E60938208709377
:1011F000830880938408909385080E94000E609372
:101200007E0870937F08809380089093810821E086
:1012100030E002C020E030E0C901089507C0E9EFE6
:10122000F0E03197F1F700C0000001970097B9F79F
:1012300008950F931F93CF93DF930E94971460E05C
:1012400071EE80E090E00E94771C0E949B0A0E9451
:101250001F0A88EC90E00E940E098EE70E94A414F9
:101260000E94660E78948EE292E00E9425241092ED
:101270008E080E94A81407C080E40E949B1488EC8A
:1012800090E00E940E0980918E088823A9F380E4E3
:101290000E949F1410928E0881E090E00E947712C5
:1012A00081E090E00E94DF1980E090E00E94B82089
:1012B00080EA9FE00E940E090E94A20700919C080C
:1012C00010919D0860919E0870919F084091A00820
:1012D0005091A1082091A6083091A7088091A808F4
:1012E0009091A908ADB7BEB71C970FB6F894BEBFD2
:1012F0000FBEADBFEDB7FEB73196C9E4D2E012968E
:10130000DC93CE9311971383028375836483578391
:10131000468331872087938782870E941324EDB705
:10132000FEB73C960FB6F894FEBF0FBEEDBF81E04E
:1013300090E00E94DF1988EB9BE00E940E098BE091
:1013400090E0F7CF1F920F920FB60F9211248F9358
:101350009F93F89483EC99E00197F1F700C00000A7
:1013600081E080938E0878949F918F910F900FBEAB
:101370000F901F9018951F920F920FB60F92112485
:101380008F939F93F89483EC99E00197F1F700C055
:10139000000081E080938A0878949F918F910F904C
:1013A0000FBE0F901F9018951F920F920FB60F92BD
:1013B00011248F939F93F89483EC99E00197F1F7B0
:1013C00000C0000081E080938B0878949F918F91FA
:1013D0000F900FBE0F901F9018951F920F920FB68F
:1013E0000F9211248F939F93F89483EC99E00197C7
:1013F000F1F700C0000081E080938C0878949F9101
:101400008F910F900FBE0F901F9018951F920F9203
:101410000FB60F9211248F939F93F89483EC99E069
:101420000197F1F700C0000081E080938D08789467
:101430009F918F910F900FBE0F901F9018958DB1B7
:101440008F708DB950988EB1806F8EB983E0809384
:10145000690010926A0081EF8DBB08959091B508E4
:10146000E091470BF091480B992311F0849101C052
:101470008081282F21542A3110F4805E0895803213
:1014800071F42091470B3091480BA9014F5F5F4FDA
:101490005093480B4093470B2115310509F70895E8
:1014A000EF92FF92CF93DF930E942E0AC0E0D0E02C
:1014B00018C09E01220F331F93E0CC0FDD1F9A95B9
:1014C000E1F7C20FD31FC80FD11DE0978091470BE2
:1014D0009091480B01969093480B8093470B0E9484
:1014E0002E0A982F90539A3020F3CE01DF91CF919E
:1014F000FF90EF9008951F920F920FB60F92112454
:101500002F933F938F939F93209184003091850078
:1015100080918A0090918B008217930710F42D9888
:1015200001C02D9A9F918F913F912F910F900FBEE7
:101530000F901F901895EFE6F0E0108283E2809301
:10154000800081E1809381001092820080E49FE11D
:10155000909389008093880010928B0010928A00EB
:10156000259A85E080830895AF92BF92CF92DF9253
:10157000EF92FF920F931F93CF93DF935B01042FA2
:1015800010928F0897FF03C09F771AE001C011E007
:10159000C0908100DD2428EFC222DD2428EC129FB8
:1015A0009001112428173907C8F4EC0137E2813182
:1015B000930710F0C0E1D7E2BE017695679580E011
:1015C00090E06058794687469F4F9E0140E050E08A
:1015D0000E947323790141E050E028C038E2139F54
:1015E000302D112420E0632FEB017E01F22EE70164
:1015F000E816F90608F4EC01BE01769567959E01A0
:1016000040E050E01A3039F480E090E0605E7344CE
:1016100081449F4F06C080E090E060537D4E8C4E29
:101620009F4F0E947323790142E050E0C42AD52ADB
:101630001A3039F4CE0105966AE070E00E944C231E
:10164000EB0153E0C83ED50779F0BE0180E090E0A1
:10165000950140E050E00E94212328EE33E040E075
:1016600050E00E94952301C0950110926F00C09236
:101670008100F0928900E0928800409188005091AA
:101680008900003108F00FE080E190E0801B9109B3
:10169000BA0102C0769567958A95E2F770938B0040
:1016A00060938A003093B9082093B80886B38FEF0F
:1016B00086BB85E080936F00DF91CF911F910F91E2
:1016C000FF90EF90DF90CF90BF90AF9008959B0177
:1016D0008F3F11F0442329F488EE93E0B90140E0F4
:1016E00049C0813130F0582F5051503618F05FE525
:1016F00001C050E0852F6CE00E944023A82FB0E08D
:10170000E4EFFFEFAE9FB001AF9F700DBE9F700D75
:101710001124650F711D6C30710540F4FB01EE0F53
:10172000FF1FEC54FD4F6081718102C060E070E0EA
:10173000873081F0082E02C0660F771F0A94E2F707
:10174000823028F0CB0105966AE070E00CC0605052
:1017500070480BC0CB01F6E0880F991FFA95E1F7AE
:10176000029665E070E00E944C23403108F04FE0A3
:10177000CB01B9010E94B40A08957F928F929F9283
:10178000AF92BF92CF92DF92EF92FF920F931F938F
:10179000CF93DF93B090AB028091B708882361F0BC
:1017A0006091B608662341F08FEF70E040E00E9440
:1017B000670B1092B60835C1C0ECDDE5AA24A394EE
:1017C00074E0772E00ED17E064E0E62EF12C54EF84
:1017D000C52E51E0D52E4FE0842E912C0E942E0A6A
:1017E0002091470B3091480B2F5F3F4F3093480BB0
:1017F0002093470B8636F1F18736C8F4823609F418
:10180000AFC0833678F48E3349F18F3338F48132A8
:1018100009F487C08C3309F09BC022C0813609F0DF
:1018200097C09BC0843601F1853608F51BC08F3602
:1018300009F447C0803740F48C3611F18D3661F1E0
:10184000873609F085C019C0843709F444C086374B
:1018500009F460C0823709F07BC039C0B394BECFB1
:10186000BA94BCCFEE2435C0EE2482E07BC0EE24D7
:1018700084E078C0EE2485E075C0EE2487E072C075
:101880000E94500ABC019093AD028093AC028091FB
:10189000AE029091AF0237C00E942E0A8C3619F426
:1018A0001092B70804C0A092B7081092B6088091B1
:1018B000470B9091480B01969093480B8093470BF0
:1018C0008DCF0E94500AB82E8093AB0287CFEE24B2
:1018D000E39480E047C00E94500ABC01CE010E9400
:1018E0004C23CB01880F991F23E0660F771F2A95A1
:1018F000E1F7860F971F9093AF028093AE0260913D
:10190000AC027091AD020E944C237093B1026093BF
:10191000B00264CF0E94500A9093B3028093B20247
:101920005DCF7092AB021093AF020093AE02F092C3
:10193000AD02E092AC02D092B102C092B00290929D
:10194000B3028092B2021092B70894E0B92E46CF4B
:101950001092480B1092470B64C0EE2489E002C03D
:10196000EE248BE09CE0B99EB02C1124B80E0AC086
:101970008091470B9091480B01969093480B809370
:10198000470BB3940E942E0A8B3291F3833281F37A
:101990000CC08091470B9091480B01969093480B97
:1019A0008093470BBA940E942E0A8D3291F3C09116
:1019B000B002D091B1028153883058F4C091AE0288
:1019C000D091AF020E94500ABC01CE010E944C236C
:1019D000EB018E010BC08091470B9091480B019653
:1019E0009093480B8093470BC00FD11F1695079516
:1019F0000E942E0A8E3279F38091B708882339F03D
:101A0000CE01969587958093B608C81BD109EE2024
:101A100011F0BB24BA948B2DBE014091B2020E94FA
:101A2000670BDF91CF911F910F91FF90EF90DF90A7
:101A3000CF90BF90AF909F908F907F9008951F920E
:101A40000F920FB60F920BB60F9211242F933F9364
:101A50004F935F936F937F938F939F93AF93BF93B6
:101A6000EF93FF938091B8089091B9089C012150A1
:101A700030403093B9082093B8080097F1F41092E1
:101A80006F00789480918100887F816080938100CD
:101A900080E49FE1909389008093880010928B00EE
:101AA00010928A0081E080938F088091470B90917B
:101AB000480B009711F00E94BD0BFF91EF91BF9171
:101AC000AF919F918F917F916F915F914F913F91D6
:101AD0002F910F900BBE0F900FBE0F901F90189577
:101AE00010926F009093480B8093470B1092B508AB
:101AF0001092B6080E94BD0B089510926F0090934B
:101B0000480B8093470B81E08093B5081092B6088C
:101B10000E94BD0B089580918F08882361F081E0B9
:101B200090E02091470B3091480B2115310529F4A5
:101B300080E090E0089581E090E0089510926F00B9
:101B4000E1E8F0E08081887F8160808380E49FE12C
:101B5000909389008093880010928B0010928A00E5
:101B600081E080938F081092480B1092470B0895E4
:101B70001F920F920FB60F9211242F933F938F93C2
:101B80009F93AF93BF938091BE089091BF08A0919F
:101B9000C008B091C1083091C2080196A11DB11DC5
:101BA000232F2D5F2D3720F02D570196A11DB11D3C
:101BB0002093C2088093BE089093BF08A093C008EA
:101BC000B093C1088091BA089091BB08A091BC085D
:101BD000B091BD080196A11DB11D8093BA089093E4
:101BE000BB08A093BC08B093BD08BF91AF919F9173
:101BF0008F913F912F910F900FBE0F901F901895CE
:101C000010926E002091BE083091BF084091C0082C
:101C10005091C10881E080936E00A89B18C02F5F8F
:101C20003F4F4F4F5F4F8091BE089091BF08A091EA
:101C3000C008B091C1080196A11DB11D8093BE08D6
:101C40009093BF08A093C008B093C108A89AB901A7
:101C5000CA01089510926E002091BA083091BB0815
:101C60004091BC085091BD0866B581E080936E003C
:101C7000A89B1AC06F3FC1F02F5F3F4F4F4F5F4F80
:101C80008091BE089091BF08A091C008B091C10892
:101C90000196A11DB11D8093BE089093BF08A0932B
:101CA000C008B093C108A89A542F432F322F22277F
:101CB000260F311D411D511D82E0220F331F441F8D
:101CC000551F8A95D1F7B901CA01089584B582607C
:101CD00084BD84B5816084BD85B5826085BD85B5D0
:101CE000816085BDEEE6F0E08081816080830895AB
:101CF000EF92FF920F931F937A018B0182E48093FE
:101D0000C00088E98093C10086E08093C20060E053
:101D100074E284EF99E4A80197010E949C210E943B
:101D20000422615070407093C5006093C40060E06D
:101D300074E284E799E4A80197010E949C2120E0C5
:101D400030E040E451E40E94BE229B01AC012093AC
:101D5000930B3093940B4093950B5093960B2091DB
:101D6000930B3091940B4091950B5091960B60E042
:101D700070E08AE793E40E949C210E940422709301
:101D8000920B6093910B7298739A8FEF8093C600B9
:101D90001092C3091092C40981E090E01F910F9145
:101DA000FF90EF9008951092C10008958091C409AA
:101DB0008093C3090895F8947398729AFC0120E007
:101DC00030E00EC08091C00085FFFCCF8091C00044
:101DD00080648093C00081918093C6002F5F3F4F45
:101DE000261737077CF38091C00086FFFCCF7298DE
:101DF000739A7894C901089510929A0B1092990BD6
:101E00002091910B3091920B265F3F4F280F391F85
:101E10003093980B2093970B08958091990B909194
:101E20009A0B019690939A0B8093990B2091990BA2
:101E300030919A0B8091970B9091980B8217930792
:101E4000E0F06091930B7091940B8091950B9091C1
:101E5000960B0E940422262F372F482F592F05C09A
:101E600000002150304040405040211531054105CF
:101E70005105B1F720E030E002C021E030E0C901B7
:101E800008959091C3098091C4099817B1F0909179
:101E9000C3098091C409981730F42091C409809136
:101EA000C30930E007C02091C4098091C30930E024
:101EB00020503F4F281B310902C020E030E0C9010B
:101EC00008951F93182F0E94410F8F3F910591F0A5
:101ED000E091C409F0E0ED53F74F10838091C409FD
:101EE0008F3F19F41092C40905C08091C4098F5F17
:101EF0008093C4091F9108951F920F920FB60F92FD
:101F00000BB60F9211242F933F934F935F936F93D0
:101F10007F938F939F93AF93BF93EF93FF938091A2
:101F2000C6000E94610FFF91EF91BF91AF919F9109
:101F30008F917F916F915F914F913F912F910F9072
:101F40000BBE0F900FBE0F901F9018959091C30974
:101F50008091C409981799F0E091C309F0E0ED531E
:101F6000F74F80819091C3099F3F19F41092C309E4
:101F700008959091C3099F5F9093C30908958FEFCF
:101F80000895CF92DF92EF92FF920F931F93CF931A
:101F9000DF93F82EE92E8B019091C3098091C4093B
:101FA0009817E1F00E94410FC82EE6016E01D92E6C
:101FB000E6010C151D050CF4E801C701E92EF82E09
:101FC00000E010E007C00E94A60FF70181937F0197
:101FD0000F5F1F4F0C171D07B4F302C0C0E0D0E025
:101FE000CE01DF91CF911F910F91FF90EF90DF9085
:101FF000CF900895CF93DF93EC016F5F7F4F8827D9
:1020000077FD8095982F0E9432229B01AC0160E001
:1020100074E284EF99E40E949C21AB01BC01CE01E3
:102020000E94780E009769F081E090E090938B0514
:1020300080938A051092AE0A1092AD0A21E030E03A
:1020400002C020E030E0C901DF91CF9108950E94E5
:10205000D30E08951F938091AD0A9091AE0A8130FE
:10206000910509F45FC081E090E09093AE0A8093FF
:10207000AD0A8091C809893940F49091C909292F86
:102080002150263028F0933819F084E090E030C0D9
:102090009FEF9093C5099093C60940E050E090E00F
:1020A00006C02B53364FF9012281420F5F5F252F67
:1020B00030E082179307ACF78B53964F4095FC01A5
:1020C000438380918A0590918B0506978230910514
:1020D00010F40E94D60E1091C8091C5F85EC99E09F
:1020E000612F70E00E94DB0E181759F082E090E03B
:1020F00090938B0580938A051092AE0A1092AD0AD8
:1021000011C08091C909823029F48091CB0990E0F7
:10211000069602C086E090E00E94FC0E10928B05AD
:1021200010928A051F910895EF92FF920F931F93CB
:102130008091AD0A9091AE0A009709F4C3C08091D6
:10214000C7098E3F09F4B4C080918A0590918B0530
:10215000009729F41092AC0A86E08093AB0A809134
:10216000AC0A90E06091AB0A70E0681B790B8B5968
:10217000954F0E94C10F9091AC0A980F9093AC0AB2
:102180008091AB0A981768F40E940D0F8130910579
:1021900041F48091AC0A882309F087C086E090E082
:1021A00089C0E090AC0A2E2D30E0A901415050408A
:1021B000B9016250704010E0DA01AB59B54F11C05F
:1021C000FC01EB59F54FF0800F2D0F3F19F4E18121
:1021D000EF3F61F08617970719F4EC91EF3F31F06C
:1021E0001F5F812F90E08417950754F31123C1F0EE
:1021F00060E0281B390B8B59954F09C0FA01EB5948
:10220000F54F480F591FDA014C9140836F5F462FFD
:1022100050E04217530794F30E2D011B0093AC0AB4
:102220008091AC0A9091AB0A8917F0F02091C70910
:102230009091670A2917C9F56091680A6C5F6093ED
:10224000AB0A8617C0F490E070E0681B790B8B59DD
:10225000954F0E94C10F9091AC0A980F9093AC0AD1
:102260008091AB0A981738F485E090E090938B0545
:1022700080938A0527C08091680A90E040E050E092
:1022800006C02B59354FF9012281420F5F5F252F80
:1022900030E082179307ACF78B59954F4095DC01DE
:1022A00013968C911397841719F087E090E002C081
:1022B00081E090E090938B0580938A051092AE0A9E
:1022C0001092AD0A1F910F91FF90EF9008950E9418
:1022D0002A1080918A0590918B05009749F40E94FD
:1022E000941080918A0590918B0585309105B9F302
:1022F000089580918A0590918B0508958093C70970
:1023000008958093C9090895FC01EB53F64F658346
:1023100008958093C80908959091690A982321E04F
:1023200030E011F420E030E0C90108958091680A9E
:1023300090E00895FC01EB59F54F858190E00895F8
:10234000362F20E0280F391FC9010895282F30E0CB
:10235000C90108958070892F90E008952091AD0AF9
:102360003091AE0A21153105F9F48093C70981E057
:102370008093C90982E08093C8090E946711809107
:102380008A0590918B058130910521F42091690A8D
:1023900030E008C08630910519F42FEF3FEF02C0FE
:1023A00020E030E0C9010895FFCF2091AD0A3091BF
:1023B000AE0A2115310599F48093C70982E0809314
:1023C000C9096093CA0981E08093CB0984E08093B6
:1023D000C8090E94671180916A0A90E00895FFCFB2
:1023E0002091AD0A3091AE0A2115310599F4809300
:1023F000C70983E08093C9096093CA094093CB0958
:1024000084E08093C8090E94671180918A059091A9
:102410008B050895FFCF2091AD0A3091AE0A2115AA
:102420003105B9F48093C70982E08093C9096093AC
:10243000CA098093CB0984E08093C8090E94671180
:1024400030916B0A20E080916A0A280F311DC90182
:102450000895FFCF2091AD0A3091AE0A21153105C4
:10246000B9F48093C70983E08093C9096093CA09CE
:10247000CA014093CB0980709093CC0985E080938A
:10248000C8090E94671180918A0590918B05089573
:10249000FFCF84309105B9F0853091053CF482304E
:1024A000910571F083309105E9F410C086309105F3
:1024B00099F0863091056CF08730910599F40FC042
:1024C0008CEC92E011C081E093E00EC08DE293E0CD
:1024D0000BC083E693E008C085E993E005C081EC7A
:1024E00093E002C08AEE93E00E94252408951F9392
:1024F000CF93DF93BC0180E090E00E94FA0F87EA5F
:1025000091E60197F1F700C00000C3E9D2E019910C
:10251000812F90E00E94AE11AFEF8F3F9A07C1F478
:1025200000D00F92EDB7FEB731962EEF33E0ADB786
:10253000BEB712963C932E931197128313820E947A
:1025400013240F900F900F900F900E94D30EE3C0B2
:10255000B2E0C53ADB07D9F68EEF90E061E170E0BA
:1025600044E250E00E94F0118130910591F00F9209
:102570000F9283E394E0EDB7FEB7928381830E94CC
:1025800013240F900F9080918A0590918B050E94E3
:1025900049128EEF90E062E170E044E250E00E9468
:1025A000F01181309105A1F00F920F9283E394E036
:1025B000ADB7BEB712969C938E9311970E941324C9
:1025C0000F900F9080918A0590918B050E9449127F
:1025D0008EEF90E06BE070E046E450E00E94F01176
:1025E0008130910591F00F920F928FE494E0EDB756
:1025F000FEB7928381830E9413240F900F908091E5
:102600008A0590918B050E9449128EEF90E06CE054
:1026100070E046E450E00E94F01181309105A1F095
:102620000F920F9283E794E0ADB7BEB712969C93DA
:102630008E9311970E9413240F900F9080918A051A
:1026400090918B050E9449128EEF90E06AE170E054
:1026500042E050E00E94F0118130910591F00F921C
:102660000F9287E994E0EDB7FEB7928381830E94D1
:1026700013240F900F9080918A0590918B050E94F2
:1026800049128EEF90E06BE170E042E050E00E9472
:10269000F01181309105A1F00F920F928EEB94E032
:1026A000ADB7BEB712969C938E9311970E941324D8
:1026B0000F900F9080918A0590918B050E9449128E
:1026C000E7EAF1E63197F1F700C000008EEF90E005
:1026D00068E170E041E050E00E94F0118130910526
:1026E000A1F00F920F9286EE94E0ADB7BEB71296AE
:1026F0009C938E9311970E9413240F900F908091BA
:102700008A0590918B050E944912E3EDF0E3319721
:10271000F1F700C00000DF91CF911F91089581E093
:1027200090E00E948C118130910521F486E095E0C3
:102730000E94252482E090E00E948C118130910556
:1027400021F48BE195E00E94252484E090E00E9432
:102750008C118130910521F48EE295E00E942524B0
:1027600088E090E00E948C118130910521F48EE385
:1027700095E00E94252480E190E00E948C11813038
:10278000910521F482E595E00E94252480E290E005
:102790000E948C118130910521F482E695E00E941F
:1027A000252480E490E00E948C118130910521F471
:1027B00082E795E00E94252408950F931F93CF93FD
:1027C000DF93FA01E9012091AD0A3091AE0A21159B
:1027D000310509F04DC0009709F442C081309105E0
:1027E00039F448815981808190E00E942A1238C0D2
:1027F0002EEF2093C70923E82093C9096093CA09E3
:1028000022E02093CB098A01ACECB9E040E050E033
:1028100014C0F80121918F012C934F5F5F4F9E01EF
:102820006991799111966C931197F9012081318109
:10283000207012963C9312971396481759074CF341
:102840009C01220F331F280F391F2C5F3F4F20930D
:10285000C8090E94671120918A0530918B0502C03A
:1028600020E030E0C901DF91CF911F910F910895D1
:10287000FFCFEF92FF920F931F93CF93DF93E091DF
:10288000AD0AF091AE0A309709F050C0009709F4F4
:1028900043C0EEEFE093C709E3E8E093C909EEE136
:1028A000E093CA09E4E0E093CB09E5ECF9E0E42E1B
:1028B000E7017E01F52EE701A22FB32F8D0120E065
:1028C00030E014C0DB014D91BD0142834881438358
:1028D00049915991407054832F5F3F4FD8014C91DB
:1028E00045834D915D918D01407056833596281733
:1028F000390744F39C01220F331F220F331F280F87
:10290000391F2C5F3F4F2093C8090E946711209107
:102910008A0530918B0502C020E030E0C901DF91CB
:10292000CF911F910F91FF90EF900895FFCF8FE708
:1029300087B918B8089598B1982798B9089598B1AB
:102940008095892388B9089598B1982B98B90895EE
:10295000E3EEF6E0A1E8B2E091918D91981741F095
:102960008CE895E00E9425248FEF9FEF0E946B2852
:1029700086E0E53FF80781F787E080933E071092F5
:10298000CC0C1092CB0C8DE591E09093CE0C809303
:10299000CD0C81E991E09093D00C8093CF0C81EE27
:1029A00091E09093D20C8093D10C81EA92E09093C5
:1029B000D40C8093D30C85ED92E09093D60C809349
:1029C000D50C85E293E09093DA0C8093D90C81E9E1
:1029D00093E09093DC0C8093DB0C89E194E090937E
:1029E000E00C8093DF0C81EA94E09093E20C8093FA
:1029F000E10C89E295E09093E40C8093E30C81EB89
:102A000095E09093E80C8093E70C89E396E090932F
:102A1000EA0C8093E90C81EC96E09093EC0C8093A7
:102A2000EB0C89E497E09093F00C8093EF0C8DEE23
:102A300097E09093F20C8093F10C81E998E09093E9
:102A4000F60C8093F50C85E399E09093F80C809355
:102A5000F70C08954F925F926F927F928F929F92A0
:102A6000AF92BF92CF92DF92EF92FF920F931F939C
:102A7000CF93DF934C01FC01EE0FFF1FE553F34FA3
:102A800000811181F801ABE9BBE084918D9331960F
:102A90005BE0AD3AB507C9F7F8017296E491E093AF
:102AA000AD0BF8017396E491E093AE0BF8017496C8
:102AB000E491E093AF0BF8017596A490A092B00B4F
:102AC000F8017696E491E093B10BF8017796B49013
:102AD000B092B20BB801665E7F4FEE24FF24A4E2F1
:102AE0006A2E712CB8C0FB0185919491A0E0B0E0F2
:102AF000DC0199278827FB0132972591349140E02A
:102B000050E0820F931FA41FB51F9C0133703D83BB
:102B10002C839C01AD01EBE05695479537952795A1
:102B2000EA95D1F733703B832A8336E1B695A795B2
:102B3000979587953A95D1F79370998388836C5FC1
:102B40007F4F26966C157D0571F6E69CF001E79C9B
:102B5000F00DF69CF00D1124ED54F44F26EF422EAB
:102B600026E0522E4AE157E0C0E0D0E081919191F9
:102B7000D201CD90DD902D01C816D90640F0DA01C2
:102B80002D913D91AD018217930708F05CC000D0F4
:102B900000D0EDB7FEB7319683ED95E0ADB7BEB787
:102BA00012969C938E93119793828282C70101960D
:102BB000958384830E94132400D00F92ADB7BEB7D3
:102BC000119689E096E0EDB7FEB792838183FE010E
:102BD000ED56FD4F808112968C93129713961C929E
:102BE0001397EE0CFF1CF70183E0EE0FFF1F8A9591
:102BF000E1F7EE0DFF1DEC0FFD1FEE0FFF1FED5473
:102C0000F44F8081918115969C938E931497CC0FED
:102C1000DD1FC65ED84F8881998117969C938E934D
:102C200016971996DC92CE9218970E9413248DB7AE
:102C30009EB70A960FB6F8949EBF0FBE8DBF8FEF5A
:102C40009FEF0E946B282196C231D10509F08ECFEB
:102C50000894E11CF11CEB14B0F088E19B2D989FC7
:102C600040011124CFEADCE09401285E3F4F200FA1
:102C7000311FEB2CFF24EE0CFF1C3E016E0C7F1C61
:102C8000CA2C40E040C0E69CE001E79CD00DF69CD9
:102C9000D00D1124CD54D44FA8E1CA2ED12CC60E8C
:102CA000D71E21CFF9018591949199838883BC0126
:102CB00061507040A9E163367A0790F4BC01660F59
:102CC000771FE3E0880F991FEA95E1F7680F791FF6
:102CD000CB016C2D742F0E944C237983688310C024
:102CE0006C2D742F0E944C23CB01880F991FB3E0E9
:102CF000660F771FBA95E1F7860F971F9983888330
:102D000022962E5F3F4FC615D70561F6CDEBDCE06E
:102D10009701285E3F4F280D391D200F311F870175
:102D20000C0F1D1F40E031C0F901859194919983EA
:102D30008883BC0161507040B9E163367B0790F431
:102D4000BC01660F771FF3E0880F991FFA95E1F732
:102D5000680F791FCB016A2D742F0E944C23798351
:102D6000688310C06A2D742F0E944C23CB01880FFA
:102D7000991F53E0660F771F5A95E1F7860F971F4B
:102D80009983888322962E5F3F4FC017D10761F643
:102D9000DF91CF911F910F91FF90EF90DF90CF9037
:102DA000BF90AF909F908F907F906F905F904F906B
:102DB0000895CF92DF92EF92FF920F931F93DF93CC
:102DC000CF93CDB7DEB7A4970FB6F894DEBF0FBE92
:102DD000CDBF1816190694F52091B20B30E02817D4
:102DE000390764F16C010894C108D10884E290E0CD
:102DF000C89EF001C99EF00DD89EF00D1124ED542F
:102E0000F44FDE011196CE018596219131912D93DB
:102E10003D93A817B907C9F70E94000E7B018C01EA
:102E2000F601EE0FFF1FE354F34F80819181BE0145
:102E30006F5F7F4F40E00E94F21B03C0EE24FF242F
:102E40008701B701C801A4960FB6F894DEBF0FBE84
:102E5000CDBFCF91DF911F910F91FF90EF90DF9049
:102E6000CF9008954F925F926F927F928F929F9230
:102E7000AF92BF92CF92DF92FF920F931F93CF93A7
:102E8000DF93CBE9DBE03FEEC32E3CE0D32E23E91A
:102E9000A22E22E0B22E91E0892E912C2E01688084
:102EA000D6018C91861509F444C0F501F080C40167
:102EB00002C0880F991F6A94E2F73C018F2D90E0C1
:102EC0006DE170E0462D50E00E94F0118C018130E0
:102ED000910541F000D00F92EDB7FEB731968CE32B
:102EE00096E013C08F2D90E06CE170E0462D50E02D
:102EF0000E94F0118C0181309105D9F000D00F9221
:102F0000EDB7FEB7319687E696E0ADB7BEB712963D
:102F10009C938E931197F28213820E9413240F9038
:102F20000F900F900F90C8010E9449122FEF3FEFB2
:102F300010C02196F2018081D6018D936D01089415
:102F4000A11CB11CBBE0CD3ADB0709F0A7CF20E004
:102F500030E0C901DF91CF911F910F91FF90DF9079
:102F6000CF90BF90AF909F908F907F906F905F9029
:102F70004F9008951F93CF93DF93C3E9D2E010E001
:102F8000899190E06EE270E00E94D511180F113027
:102F900039F082E0C53AD80799F720E030E002C066
:102FA00021E030E0C901DF91CF911F910895FF9298
:102FB0000F931F93CF93DF9380913E078130C1F52C
:102FC0000E94BB20009709F10E94000E2091B50AD3
:102FD0003091B60A4091B70A5091B80A621B730B40
:102FE000840B950BE091B408F0E0EE0FFF1FE55461
:102FF000F34F2081318140E050E06217730784076E
:10300000950708F4D6C183E035C00E94BA1788231B
:1030100009F0CFC183E080933E070E94000E6093C9
:10302000B90A7093BA0A8093BB0A9093BC0A24C071
:10303000823011F50E94000E2091AF0A3091B00A43
:103040004091B10A5091B20A621B730B840B950B2D
:10305000E091B408F0E0EE0FFF1FE355F34F20813D
:10306000318140E050E0621773078407950708F448
:10307000A0C184E080933E0780913E078330E9F54C
:103080000E94BB200097C9F503E912E0D801FD902A
:103090008D018F2D90E00E94AE11EC01009739F167
:1030A0008EEF90E068E170E040E050E00E94F011A7
:1030B00000D000D0EDB7FEB7319681E996E0ADB70C
:1030C000BEB712969C938E931197F2821382D5838A
:1030D000C4830E94132486E080933E07EDB7FEB7B9
:1030E00036960FB6F894FEBF0FBEEDBF62C1F2E098
:1030F000053A1F0759F60E94BE1A80913E07863096
:10310000B9F48091AE08883199F48EEF90E062E2D4
:1031100070E04FEF53E00E942A128EEF90E068E1DA
:1031200070E041E050E00E94F01187E080933E079C
:103130008091B4084091B20B841709F071C090914E
:103140003E079350923008F06BC08091B40A8130F2
:1031500019F41092B40A2AC18091AE08882359F458
:103160008091AE0B882309F421C18093B20881E0DD
:103170008093B40A2EC00091B0080130A1F40E94DF
:10318000BF208130910519F41092B00822C08091BF
:10319000AE0B882319F41092B20808C18093B208CC
:1031A0000093B40A16C09091B30A8091AF0B9817A0
:1031B00038F481E08093B4089F5F9093B30A17C0FE
:1031C0008091AD0B982F9150913108F0EFC0809312
:1031D000B2088091B20890E00E942A150E9432172E
:1031E0000097A1F481E08093B4088093B30A8093A0
:1031F0003E0781E090E00E94D9166093B50A709373
:10320000B60A8093B70A9093B80AD3C08EEF90E0C5
:1032100068E170E040E050E00E94F01186E0C7C035
:1032200090913E079330F1F4E82FF0E0EE0FFF1F8E
:10323000E355F34F208131812115310581F09091C3
:10324000AE08992361F00E94000E6093AF0A70935C
:10325000B00A8093B10A9093B20A82E0A8C094E0C9
:1032600090933E0790913E07943081F4841740F488
:103270008F5F8093B40891E090933E0790E0BBCFBE
:1032800087E080933E071092B20893C0973009F010
:1032900090C08091B008813009F08BC08091AF0858
:1032A000882321F08091AF08823158F08091AE08D8
:1032B000882339F08091AE08813118F40E94912062
:1032C00036C00E94BB20181619068CF58091AE08F6
:1032D000882369F18091AE08813148F52091B208C8
:1032E00030E02F513040C9016CE070E00E944C2367
:1032F00070E044EF5FEF649FC001659F900D749F85
:10330000900D1124820F931F8A30910519F482E0E9
:1033100090E002C080E090E02091AE0821503CE0B7
:10332000239F202D1124205E280F2093B308809125
:10333000AE088823A9F18091B30890E00E942A1575
:103340008091B3088093B2081092B3088091AE08C0
:10335000882341F08091AE08813120F48091AE083D
:1033600090E002C080E090E00E94B8200E943217F6
:103370000097B1F481E08093B4088093B30A8093FE
:103380003E0781E090E00E94D9166093B50A7093E1
:10339000B60A8093B70A9093B80A1092B00809C091
:1033A0001092B2081092B3081092B00887E0809390
:1033B0003E07DF91CF911F910F91FF9008956F927B
:1033C0007F928F929F92AF92BF92CF92DF92EF92B5
:1033D000FF920F931F93DF93CF93CDB7DEB7A497E0
:1033E0000FB6F894DEBF0FBECDBF8093B2080E9427
:1033F0002A150BE91BE033E9A32E32E0B32E21E0BE
:10340000822E912CD501CD905D01F80134010190FF
:1034100002C0660C771C0A94E2F78F018C2D90E0B5
:103420006DE170E0462D50E00E94F0117C0181308A
:10343000910561F48C2D90E06CE170E0462D50E038
:103440000E94F0117C0181309105D9F000D00F92DB
:10345000EDB7FEB7319684EC96E0ADB7BEB71296E5
:103460009C938E931197C28213820E9413240F9013
:103470000F900F900F90C7010E94491220E030E09A
:103480005FC0BBE00D3A1B0709F0BCCF0E94000EE5
:1034900091E0C92ED12C84E2882E912C5E010894F3
:1034A000A11CB11C05E2602E712C6C0E7D1E36C075
:1034B000819191918D939D93A615B705C9F70E94AF
:1034C000000EF70186859785B50141E00E94F21B49
:1034D0000E94000ED7018D919D917D01009741F0D2
:1034E000E9EFF0E03197F1F700C000000197F6CF67
:1034F0000F5F1F4F8091B20B90E0081719075CF423
:10350000089DF001099DF00D189DF00D1124ED545A
:10351000F44FD501CDCF0894C11CD11C8091AF0BC5
:1035200090E08C159D053CF01FEAE12E1CE0F12E89
:1035300000E010E0DFCF0E94000E2091AD0B30E0E4
:10354000C901A4960FB6F894DEBF0FBECDBFCF91D0
:10355000DF911F910F91FF90EF90DF90CF90BF9080
:10356000AF909F908F907F906F9008958091AE0B59
:1035700090E0009711F00E94D71708950F931F93C2
:10358000CF93DF9303E912E0C0E0D0E0F80181912E
:103590008F0190E064E270E00E940B12FE01EE0FDA
:1035A000FF1FE75BF44F918380832196C231D105E1
:1035B00069F7DF91CF911F910F9108959F92AF927C
:1035C000BF92CF92DF92EF92FF920F931F93DF9300
:1035D000CF93CDB7DEB763970FB6F894DEBF0FBEBB
:1035E000CDBF20E06E010894C11CD11C43E1A42E84
:1035F000B12CAC0EBD1E01C021E0860133E9E32EE3
:1036000032E0F32E9924222321F0F80180818130C9
:1036100061F4F701808190E06EE270E02B8B0E94F4
:10362000D511F8018083980E2B890F5F1F4F0894E6
:10363000E11CF11C0A151B0531F79920E9F6639688
:103640000FB6F894DEBF0FBECDBFCF91DF911F91B3
:103650000F91FF90EF90DF90CF90BF90AF909F9031
:1036600008952F923F924F925F926F927F928F9226
:103670009F92AF92BF92CF92DF92EF92FF920F9301
:103680001F93DF93CF93CDB7DEB7A4970FB6F8940F
:10369000DEBF0FBECDBF4C010E94BB20009711F4CE
:1036A0000E94BE1AB1E0EB2EBDE0FB2EA9E4CA2EAB
:1036B000ADE0DA2E5E010894A11CB11C00E010E020
:1036C000FFEF6F2EF3E07F2E140144245524EAE12E
:1036D0008E2E912CF801EE0FFF1FE359F44F8081DD
:1036E0009181F70120813181820F931FF4E08030B6
:1036F0009F0720F0F7017182608203C0F701918378
:103700008083F70180819181F801EE0FFF1FE75B55
:10371000F44F208131812817390740F4208131810D
:10372000821B930BF5019183808307C02081318137
:10373000281B390BF501318320830E94BB200097A1
:1037400051F0F70180819181F801EE0FFF1FE75BD7
:10375000F44F91838083F501619171915F0180E065
:1037600090E020E533E040E050E00E942123A201F8
:1037700091010E947323F60131832083F4E020300D
:103780003F0718F0F60171826082F6018081918115
:103790008A31910510F4918280820F5F1F4F82E081
:1037A00090E0E80EF91EC80ED91E0231110509F08D
:1037B00091CFA4960FB6F894DEBF0FBECDBFCF91C8
:1037C000DF911F910F91FF90EF90DF90CF90BF900E
:1037D000AF909F908F907F906F905F904F903F90B1
:1037E0002F900895FF920F931F93CF93DF93042F91
:1037F000262F372FF901C1E0DDE021913191299386
:1038000039932DE0C532D207C1F70E94311B82E106
:1038100090E063E972E0AE014452504029E43DE09B
:103820000E943914EC0181309105A1F00F920F92A2
:103830008FE397E0ADB7BEB712969C938E93119726
:103840000E9413240F900F90CE010E9449122FEF77
:103850003FEF3EC00130D1F50E94DE1A03E912E0CD
:10386000F801F1908F018F2D90E00E94AE11EC01D4
:10387000009731F18EEF90E068E170E040E050E0B9
:103880000E94F01100D000D0EDB7FEB7319682E56E
:1038900097E0ADB7BEB712969C938E931197F282C4
:1038A0001382D583C4830E941324EDB7FEB73696E6
:1038B0000FB6F894FEBF0FBEEDBF21E030E008C0A8
:1038C000F2E0053A1F0761F60E94BE1A20E030E0E0
:1038D000C901DF91CF911F910F91FF90089580E969
:1038E00091E06EE777E041E00E94F21B089522E448
:1038F0002093C80028E92093C90026E02093CA003D
:103900000E9432229B01AC0160E074E284EF99E4F2
:103910000E949C210E940422615070407093C50057
:103920006093C4008FEF8093CE001092410B1092F1
:10393000420B83EE9DE161EA7EE10E94C8239093F1
:10394000440B8093430B1092AE081092AF08109274
:10395000B1080895AF92BF92CF92DF92EF92FF929B
:103960000F931F93DF93CF9300D000D0CDB7DEB776
:103970006C0184EA97E00E94252400E010E07E01BB
:103980000894E11CF11C94E1B92EF801EE0FFF1F21
:10399000EA5AF54F25913491C701B9010E94B82325
:1039A000C701B6010E94BF230097D9F400D00F923F
:1039B00085EB97E0ADB7BEB712969C938E931197A7
:1039C0001496DC92CE9213970E9413248091AE0835
:1039D0008093AF080093AE080F900F900F900F9058
:1039E0000DC0013131F48091AE088093AF08B092E0
:1039F000AE080F5F1F4F0231110539F68091AE08F6
:103A00008331C1F0843138F4813161F0823160F466
:103A1000813099F410C0873149F0883159F08631EE
:103A200061F406C08FE107C089E105C08CE103C0E5
:103A30008BE101C08AE18093B3088091AE088823AE
:103A400091F12091AE0800D00F92EDB7FEB73196FC
:103A50008FEC97E0ADB7BEB712969C938E931197FB
:103A6000228313820E9413248091AE0881509CE02F
:103A7000899F802D1124805E8093B3082091B30824
:103A8000EDB7FEB7319681EE97E0ADB7BEB71296AF
:103A90009C938E931197228313820E9413240F907C
:103AA0000F900F900F908091AE081092B108809106
:103AB000AE08853171F42091B308EDB7FEB73C979D
:103AC0000FB6F894FEBF0FBEEDBF31968EEF97E0B4
:103AD00013C08091AE08843129F12091AE088DB7D2
:103AE0009EB70C970FB6F8949EBF0FBE8DBFEDB773
:103AF000FEB7319681E298E0ADB7BEB712969C93BF
:103B00008E93119712821382148215821682178265
:103B100010861186228713860E941324EDB7FEB704
:103B20003C9620C08DB79EB70A970FB6F8949EBFFB
:103B30000FBE8DBFEDB7FEB731968CE398E0ADB701
:103B4000BEB712969C938E931197128213821482A1
:103B5000158216821782108611860E941324EDB7F3
:103B6000FEB73A960FB6F894FEBF0FBEEDBF809138
:103B7000AE0821E030E0843111F420E030E0C901EA
:103B800026960FB6F894DEBF0FBECDBFCF91DF9162
:103B90001F910F91FF90EF90DF90CF90BF90AF906B
:103BA0000895282F392FF90180E090E008C0209176
:103BB000C80025FFFCCF21912093CE0001968617E7
:103BC0009707ACF30895DF93CF930F920F92CDB781
:103BD000DEB7282FCE0101962A3031F43DE039833B
:103BE0002A8362E070E003C0298361E070E00E94F4
:103BF000D11D80E090E00F900F90CF91DF9108955C
:103C00009091410B8091420B9817B1F09091410B2C
:103C10008091420B981730F42091420B8091410B18
:103C200030E007C02091420B8091410B30E02058DA
:103C30003F4F281B310902C020E030E0C901089540
:103C40001F93182F0E94001E8F37910591F0E0916D
:103C5000420BF0E0EF53F54F10838091420B8F370A
:103C600019F41092420B05C08091420B8F5F809334
:103C7000420B1F9108951F920F920FB60F920BB631
:103C80000F9211241F932F933F934F935F936F9342
:103C90007F938F939F93AF93BF93CF93DF93EF93D4
:103CA000FF931091CE001D3089F481E08093B1081C
:103CB0008FEF0E94201EC091430BD091440B8AE0ED
:103CC000BE010E94E31D80E2BE0108C0812F0E9458
:103CD000201E6091430B7091440B812F0E94E31DC5
:103CE000FF91EF91DF91CF91BF91AF919F918F9114
:103CF0007F916F915F914F913F912F911F910F9005
:103D00000BBE0F900FBE0F901F9018959091410B16
:103D10008091420B981799F0E091410BF0E0EF533E
:103D2000F54F80819091410B9F3719F41092410B10
:103D300008959091410B9F5F9093410B08958FEFF1
:103D400008950E94001E0097E1F30E94861E8D30A8
:103D500009F48AE090E00895CF92DF92EF92FF920B
:103D60000F931F93CF93DF93F82EE92E8B01909141
:103D7000410B8091420B9817E9F00E94001EC82E5B
:103D8000E6016E01D92EE6010C151D050CF4E801C3
:103D9000C701E92EF82E00E010E007C00E94861E41
:103DA000F70181937F010F5F1F4F0C171D07B4F3BD
:103DB0008C2F01C080E0DF91CF911F910F91FF9078
:103DC000EF90DF90CF9008956F927F928F929F92A5
:103DD000AF92BF92CF92DF92EF92FF920F931F9319
:103DE000DF93CF93CDB7DEB72C970FB6F894DEBF35
:103DF0000FBECDBF8091B108882309F47AC10E941B
:103E0000861EA82E81568A3128F48A2D90E00E94C1
:103E1000B023A82EA9820E94861EB82E81568A3110
:103E200028F48B2D90E00E94B023B82E8B2D8F3F6D
:103E300011F470E2B72EBA820E94861EC82E8156F7
:103E40008A3128F48C2D90E00E94B023C82E9C2D3E
:103E50009F3F11F460E2C62ECB820E94861ED82EB0
:103E600081568A3128F48D2D90E00E94B023D82EFF
:103E7000AD2DAF3F11F450E2D52EDC821D820E94A1
:103E8000861E0E94001E0097D1F700E010E047E078
:103E9000E42EF12CEC0EFD1E4E010894811C911CA9
:103EA00034E1632EF801EE0FFF1FEA5AF54F25911A
:103EB0003491C701B9010E94B823C701B4010E941F
:103EC000BF23009739F48091AE088093AF08009328
:103ED000AE080DC0013131F48091AE088093AF0877
:103EE0006092AE080F5F1F4F02311105D9F6809125
:103EF000AE08843131F18091AE08813110F18091AA
:103F0000AE088331D1F0843140F4813171F08231D7
:103F100070F4813009F04FC011C0873151F0883101
:103F200061F0863109F047C006C08FE107C089E122
:103F300005C08CE103C08BE101C08AE18093B30826
:103F40003AC08091AE088823B1F18091AE088131EA
:103F500090F52091AE0800D00F92EDB7FEB73196E4
:103F60008FEC97E0ADB7BEB712969C938E931197E6
:103F7000228313820E9413248091AE0881509CE01A
:103F8000899F802D1124805E8093B3082091B3080F
:103F9000EDB7FEB7319681EE97E0ADB7BEB712969A
:103FA0009C938E931197228313820E9413240F9067
:103FB0000F900F900F908091AE08843191F5BA2D3B
:103FC000BD3479F58B2D80538A3058F595E1909367
:103FD000AE088093B3088C2D80538A3078F480919A
:103FE000B308880F982F990F990F980F9093B308E3
:103FF0008091B30880538C0D8093B3088D2D80532E
:104000008A3078F48091B308880F982F990F990F10
:10401000980F9093B3088091B30880538D0D8093CF
:10402000B3081092B1088091AE08853191F42091C7
:10403000B3088DB79EB70C970FB6F8949EBF0FBE0E
:104040008DBFEDB7FEB731968EEF97E0ADB7BEB737
:1040500013C08091AE08843119F12091AE08ADB73C
:10406000BEB71C970FB6F894BEBF0FBEADBFEDB77D
:10407000FEB7319681E298E012969C938E93119749
:10408000A2821382B4821582C6821782D0861186DC
:10409000228713860E9413248DB79EB70C961EC0EC
:1040A000ADB7BEB71A970FB6F894BEBF0FBEADBF7F
:1040B000EDB7FEB731968CE398E012969C938E9301
:1040C0001197A2821382B4821582C6821782D0868B
:1040D00011860E9413248DB79EB70A960FB6F894E6
:1040E0009EBF0FBE8DBF8091AE0821E030E08431CD
:1040F00011F420E030E0C9012C960FB6F894DEBF31
:104100000FBECDBFCF91DF911F910F91FF90EF9028
:10411000DF90CF90BF90AF909F908F907F906F90E7
:1041200008951092450B1092460B8FE18093B208D0
:104130008FE190E00E94DF198EEF90E060E370E085
:1041400044E650E00E942A128130910581F00F92DE
:104150000F928BE598E0EDB7FEB7928381830E94C2
:1041600013240F900F900E9479110E944912089514
:104170008093450B08958091450B90E008958091C0
:10418000AE08882309F493C08091AE08813108F00D
:104190008EC08091450B8130E9F48091AE08873064
:1041A00051F49091B208933209F481C0973209F426
:1041B0007EC09CE643C08091AE08883009F077C08D
:1041C0009091B208913209F472C0953209F46FC02F
:1041D0009AE734C0873081F48091AE08883029F0A6
:1041E0008091AE08813009F062C08091B2088F36AC
:1041F00009F45DC084E211C0883099F48091AE0862
:10420000873029F08091AE08813009F050C080914C
:10421000B208893709F44BC086E28093B20881E086
:1042200041C08230E9F48091AE08893051F4909118
:10423000B2089D32E1F19133D1F196E89093B20842
:1042400031C08091AE088A3091F58091B2088F32EA
:1042500071F1833361F180E98093B2088AE022C072
:10426000893071F48091AE088A3021F08091AE08D7
:104270008230E9F48091B2088538C9F082E30FC03A
:104280008A30A9F48091AE08893021F08091AE087F
:10429000823069F48091B208833949F080E38093D9
:1042A000B20882E08093450B21E030E002C020E0BC
:1042B00030E0C90108959C01019782309105C0F456
:1042C0008091AC089091AD088333910570F1809195
:1042D000AA089091AB088333910538F18091AE081C
:1042E0008093AF0881E08093AE082FEF3FEF22C0AC
:1042F0002F5F3F4F22303105D8F48091AC08909168
:10430000AD088431910538F08091AA089091AB08EE
:104310008431910568F48091AE088093AF0883E002
:104320008093AE0821E030E005C022E030E002C01A
:1043300020E030E0C90108950CD0E6C0DED040F0A6
:10434000D5D030F021F45F3F19F0C7C0511110C132
:10435000CAC0EBD098F39923C9F35523B1F3951B49
:10436000550BBB27AA2762177307840738F09F5F96
:104370005F4F220F331F441FAA1FA9F333D00E2E05
:104380003AF0E0E830D091505040E695001CCAF772
:1043900029D0FE2F27D0660F771F881FBB1F261737
:1043A00037074807AB07B0E809F0BB0B802DBF010A
:1043B000FF2793585F4F2AF09E3F510568F08DC04C
:1043C000D7C05F3FECF3983EDCF386957795679511
:1043D000B795F7959F5FC9F7880F911D96958795BB
:1043E00097F90895E1E0660F771F881FBB1F6217DA
:1043F00073078407BA0720F0621B730B840BBA0B98
:10440000EE1F88F7E095089598D088F09F5790F0B8
:10441000B92F9927B751A0F0D1F0660F771F881FE9
:10442000991F1AF0BA95C9F712C0B13081F09FD028
:10443000B1E008959CC0672F782F8827B85F39F0C6
:10444000B93FCCF3869577956795B395D9F73EF448
:1044500090958095709561957F4F8F4F9F4F0895F0
:10446000E89409C097FB3EF490958095709561950E
:104470007F4F8F4F9F4F9923A9F0F92F96E9BB27C4
:104480009395F695879577956795B795F111F8CF40
:10449000FAF4BB0F11F460FF1BC06F5F7F4F8F4FAB
:1044A0009F4F16C0882311F096E911C0772321F0A1
:1044B0009EE8872F762F05C0662371F096E8862F39
:1044C00070E060E02AF09A95660F771F881FDAF790
:1044D000880F9695879597F9089597F99F6780E8D3
:1044E00070E060E008959FEF80EC089500240A9446
:1044F0001616170618060906089500240A941216BF
:104500001306140605060895092E0394000C11F4F1
:10451000882352F0BB0F40F4BF2B11F460FF04C09E
:104520006F5F7F4F8F4F9F4F089557FD9058440FF7
:10453000551F59F05F3F71F04795880F97FB991F02
:1045400061F09F3F79F087950895121613061406BF
:10455000551FF2CF4695F1DF08C01616170618064C
:10456000991FF1CF86957105610508940895E89427
:10457000BB2766277727CB0197F908950BD0C4CFC7
:10458000B5DF28F0BADF18F0952309F0A6CFABCF3E
:104590001124EECFCADFA0F3959FD1F3950F50E021
:1045A000551F629FF001729FBB27F00DB11D639FE5
:1045B000AA27F00DB11DAA1F649F6627B00DA11D8B
:1045C000661F829F2227B00DA11D621F739FB00D31
:1045D000A11D621F839FA00D611D221F749F3327A1
:1045E000A00D611D231F849F600D211D822F762F3A
:1045F0006A2F11249F5750408AF0E1F088234AF037
:10460000EE0FFF1FBB1F661F771F881F9150504082
:10461000A9F79E3F510570F060CFAACF5F3FECF342
:10462000983EDCF3869577956795B795F795E7956E
:104630009F5FC1F7FE2B880F911D9695879597F97F
:104640000895629FD001739FF001829FE00DF11DDC
:10465000649FE00DF11D929FF00D839FF00D749FFC
:10466000F00D659FF00D9927729FB00DE11DF91FA8
:10467000639FB00DE11DF91FBD01CF011124089505
:10468000991B79E004C0991F961708F0961B881FA4
:104690007A95C9F780950895AA1BBB1B51E107C005
:1046A000AA1FBB1FA617B70710F0A61BB70B881FC2
:1046B000991F5A95A9F780959095BC01CD01089551
:1046C00097FB092E07260AD077FD04D0E5DF06D038
:1046D00000201AF4709561957F4F0895F6F7909534
:1046E00081959F4F0895A1E21A2EAA1BBB1BFD01C5
:1046F0000DC0AA1FBB1FEE1FFF1FA217B307E407C1
:10470000F50720F0A21BB30BE40BF50B661F771F18
:10471000881F991F1A9469F76095709580959095F8
:104720009B01AC01BD01CF01089597FB092E052621
:104730000ED057FD04D0D7DF0AD0001C38F45095B6
:104740004095309521953F4F4F4F5F4F0895F6F7B5
:1047500090958095709561957F4F8F4F9F4F0895ED
:104760009111089581568A5108F480528558089510
:10477000FB01DC0105900D920020E1F70895FB019B
:10478000DC018D91019080190110D9F3990B0895E6
:104790000F931F93CF93DF938C01EB01009711F4DC
:1047A0002097C9F181E090E06EE070E00E946C26F5
:1047B000FC019C01009789F180E88383209771F0C8
:1047C000D387C28781E8838380916D0D90916E0DB0
:1047D000009721F4F0936E0DE0936D0D0115110516
:1047E000E1F01187008783818260838380916F0D60
:1047F0009091700D009789F4F093700DE0936F0D18
:104800008091710D9091720D009739F4F093720DB3
:10481000E093710D02C020E030E0C901DF91CF913B
:104820001F910F910895DF93CF93CDB7DEB7FE01AF
:1048300036966191719180916F0D9091700DAF01DD
:104840000E945C24CF91DF910895EF92FF920F9325
:104850001F93CF93DF938C01E0916F0DF091700D5A
:10486000838181FF1FC0C0E0D0E00AC0DB01189641
:10487000ED91FC9119971995009711F0CFEFDFEFAB
:10488000F80181918F0160916F0D7091700D8823F7
:1048900069F7DB011896ED91FC9119978AE019955B
:1048A000009711F0CFEFDFEFCE01DF91CF911F9195
:1048B0000F91FF90EF9008952F923F924F925F9249
:1048C0006F927F928F929F92AF92BF92CF92DF9220
:1048D000EF92FF920F931F93DF93CF93CDB7DEB785
:1048E0002C970FB6F894DEBF0FBECDBF6C011B0135
:1048F0008A01FC0117821682838181FFD1C12E01BA
:104900000894411C511CF6019381F10193FD85919E
:1049100093FF81911F01882309F4BEC1853239F4C8
:1049200093FD859193FF81911F01853229F490E0D9
:10493000B6010E94E127E7CFEE24FF2420E02032D9
:10494000B0F48B3269F08C3228F4803251F083322B
:1049500071F40BC08D3239F0803349F421602CC0E2
:104960002260246029C0286027C0206125C027FD5F
:104970002CC0382F30533A3098F426FF08C08E2DC3
:10498000880FE82EEE0CEE0CE80EE30E15C08F2D0E
:10499000880FF82EFF0CFF0CF80EF30E20620CC0EF
:1049A0008E3221F426FD78C1206406C08C3611F4C5
:1049B000206802C0883649F4F10193FD859193FF88
:1049C00081911F01882309F0BACF982F9554933015
:1049D00018F09052933028F40C5F1F4FFFE3F983D7
:1049E0000DC0833631F0833771F0833509F060C034
:1049F00022C0F801808189830E5F1F4F420171E060
:104A0000A72EB12C16C062E0662E712C600E711EAE
:104A1000F8018080918026FF03C06E2D70E002C0F7
:104A20006FEF7FEFC4012C870E94D6275C018301C2
:104A30002C852F7717C052E0652E712C600E711EE9
:104A4000F8018080918026FF03C06E2D70E002C0C7
:104A50006FEF7FEFC4012C870E94C4275C012C8577
:104A60002068830123FD20C008C080E290E0B601E9
:104A70002C870E94E127FA942C858F2D90E0A816B0
:104A8000B90698F311C0F40127FD859127FF8191A4
:104A90004F0190E0B6012C870E94E1272C85F11090
:104AA000FA940894A108B108A114B10461F7F1C007
:104AB000843611F0893649F527FF08C0F801608176
:104AC0007181828193810C5F1F4F09C0F801608161
:104AD0007181882777FD8095982F0E5F1F4F4FE6D5
:104AE000B42EB22297FF09C090958095709561957C
:104AF0007F4F8F4F9F4FF0E8BF2AA2012AE030E09E
:104B00000E940D28782E741845C0853731F43FEE89
:104B1000B32EB2222AE030E025C099EFB92EB2229E
:104B20008F36C1F0803720F4883509F0B5C00DC04C
:104B3000803721F0883709F0AFC002C020E1B22AE7
:104B4000B4FE0BC084E0B82A08C0B4FE09C0E6E099
:104B5000BE2A06C028E030E005C020E130E002C0F7
:104B600020E132E0B7FE08C0F801608171818281E6
:104B700093810C5F1F4F07C0F8016081718180E055
:104B800090E00E5F1F4FA2010E940D28782E74182E
:104B9000FFE7BF22B6FE0BC02EEFB2227E1438F420
:104BA000B4FE07C0B2FC05C08FEEB82202C0A72C2D
:104BB00001C0AE2C8B2D90E0B4FE0DC0FE01E70DC0
:104BC000F11D2081203319F4E9EEBE2209C0A3941F
:104BD000B2FE06C004C086789070009709F0A394D6
:104BE0008B2C9924B3FC14C0B0FE0FC0AF1428F472
:104BF000E72CEF0CEA18AF2C08C0E72C06C080E2C7
:104C000090E0B6010E94E127A394AF14C0F304C062
:104C1000AF1410F4FA1801C0FF2484FE0FC080E323
:104C200090E0B6010E94E12782FE1FC081FE03C012
:104C300088E590E010C088E790E00DC0C401867858
:104C40009070009791F081FC02C080E201C08BE27D
:104C5000B7FC8DE290E0B6010E94E12706C080E338
:104C600090E0B6010E94E127EA947E14C0F37A94A2
:104C7000F201E70DF11D808190E0B6010E94E1276D
:104C80007720A9F706C080E290E0B6010E94E127F4
:104C9000FA94FF20C1F737CEF6012681378102C092
:104CA0002FEF3FEFC9012C960FB6F894DEBF0FBE71
:104CB000CDBFCF91DF911F910F91FF90EF90DF90CB
:104CC000CF90BF90AF909F908F907F906F905F90AC
:104CD0004F903F902F900895EF92FF920F931F9364
:104CE000CF93DF93689F8001699F100D789F100D0F
:104CF0001124C8010E949126E82EE7017E01F92EB9
:104D0000E701209731F08E2D60E070E0A8010E944D
:104D1000CF27CE01DF91CF911F910F91FF90EF90A0
:104D20000895CF93DF938230910510F482E090E0F4
:104D3000E091750DF091760D40E050E020E030E01C
:104D400026C06081718168177907E0F068177907DC
:104D500081F4828193812115310531F0D9011396B7
:104D60009C938E9312972BC09093760D8093750D24
:104D700026C04115510519F06417750718F4AB01E9
:104D8000E901DF019F0172816381E72FF62F3097E0
:104D9000C1F64115510501F1481B590B443051052D
:104DA00080F412968D919C911397209719F09B8314
:104DB0008A8304C09093760D8093750DFD01329621
:104DC00046C0FD01E40FF51F81939193425050407E
:104DD00011965C934E933BC02091730D3091740DEE
:104DE0002115310541F420917508309176083093F2
:104DF000740D2093730D2091770830917808211558
:104E0000310541F42DB73EB74091730850917408B5
:104E1000241B350BE091730DF091740DE217F3072D
:104E2000A0F42E1B3F0B2817390778F0AC014E5F1A
:104E30005F4F2417350748F04E0F5F1F5093740DD6
:104E40004093730D8193919302C0E0E0F0E0CF01B5
:104E5000DF91CF910895CF93DF93009709F491C02C
:104E6000FC013297138212826091750D7091760D5C
:104E70006115710581F420813181280F391F8091DE
:104E8000730D9091740D8217930799F5F093740D3B
:104E9000E093730D76C0DB0180E090E002C0CD01AD
:104EA000D901AE17BF0748F412962D913C91139784
:104EB00021153105A1F7CD0121C0B383A283EF01F4
:104EC000499159919E01240F351FA217B30779F418
:104ED0002D913C911197240F351F2E5F3F4F318349
:104EE000208312962D913C91139733832283009750
:104EF00029F4F093760DE093750D43C0DC01139611
:104F0000FC93EE9312974D915D91A40FB51FEA1794
:104F1000FB0769F420813181240F351F2E5F3F4F3D
:104F2000EC0139832883228133813B832A83E0E0AB
:104F3000F0E002C0FB01BC01DB0112968D919C9157
:104F400013970097B9F79B012E5F3F4F8D919C916E
:104F50001197820F931F4091730D5091740D481754
:104F6000590779F4309729F41092760D1092750D47
:104F700002C013821282225030403093740D20936D
:104F8000730DDF91CF910895FC0105906150704041
:104F90000110D8F7809590958E0F9F1F0895DC0122
:104FA00001C06D9341505040E0F70895FC016150FD
:104FB000704001900110D8F7809590958E0F9F1F3B
:104FC00008950F931F93CF93DF938C01EB018B8197
:104FD00081FF1BC082FF0DC02E813F818C819D818E
:104FE0002817390764F4E881F9810193F983E8838C
:104FF00006C0E885F985802F1995009731F48E81D8
:105000009F8101969F838E8302C00FEF1FEFC8011F
:10501000DF91CF911F910F910895FA01AA272830AF
:1050200051F1203181F1E8946F936E7F6E5F7F4F75
:105030008F4F9F4FAF4FB1E03ED0B4E03CD0670FF1
:10504000781F891F9A1FA11D680F791F8A1F911D44
:10505000A11D6A0F711D811D911DA11D20D009F494
:1050600068943F912AE0269F11243019305D3193D6
:10507000DEF6CF010895462F4770405D4193B3E0BF
:105080000FD0C9F7F6CF462F4F70405D4A3318F066
:10509000495D31FD4052419302D0A9F7EACFB4E017
:1050A000A6959795879577956795BA95C9F70097CF
:1050B0006105710508959B01AC010A2E0694579570
:1050C000479537952795BA95C9F7620F731F841FC7
:0A50D000951FA01D0895F894FFCF6E
:1050DA008813460050005F0073009600AF00CD00B1
:1050EA00F5003601C7017102500046003C0032004B
:1050FA0028001E00190014000F000A0005000A42C9
:10510A00696F6C6F6964204320436F6E74726F6CB1
:10511A002056302E3520562E0042617474657279FD
:10512A002C204779726F20582C20592041636365DF
:10513A006C20582C20592043656E746572203D20DE
:10514A002569202569202569202569202569200AE5
:10515A000000010101010101010101010101010137
:10516A000101010102030405060708090A0B0C0DD7
:10517A000E0F101112010101010101040400D007F0
:10518A00F4010F009C01B501CF01EA0107022602D2
:10519A00470269028E02B502DE020A03434F4D4DF1
:1051AA005F54584641494C3A204661696C6564200F
:1051BA007472616E736D697474696E6720696E7357
:1051CA007472756374696F6E207061636B657421A4
:1051DA0000434F4D4D5F54584552524F523A204961
:1051EA006E636F727265637420696E73747275632D
:1051FA0074696F6E207061636B65742100434F4D53
:10520A004D5F52584641494C3A204661696C656483
:10521A0020746F20676574207374617475732070CD
:10522A0061636B65742066726F6D2064657669636D
:10523A00652100434F4D4D5F525857414954494EDD
:10524A00473A2057616974696E6720746F207265E6
:10525A006365697665207374617475732070616320
:10526A006B65742100434F4D4D5F525854494D456B
:10527A004F55543A20537461747573207061636B8F
:10528A006574206E6F742072656365697665642142
:10529A0000434F4D4D5F5258434F52525550543A66
:1052AA0020496E636F7272656374207374617475DA
:1052BA0073207061636B65742100556E6B6E6F7736
:1052CA006E206572726F7220636F646521000A48EE
:1052DA006172647761726520436F6E666967757281
:1052EA006174696F6E204661696C757265206174BC
:1052FA002044796E616D6978656C2049442025697E
:10530A002E0A000A44584C5F414C41524D5F4C45AD
:10531A00442042726F616463617374202D20000A15
:10532A0044584C5F54454D50455241545552455F7F
:10533A004C494D49542042726F6164636173742011
:10534A002D20000A44584C5F4C4F575F564F4C541F
:10535A004147455F4C494D49542042726F6164632D
:10536A00617374202D20000A44584C5F43575F43F1
:10537A004F4D504C49414E43455F4D415247494E6E
:10538A002042726F616463617374202D20000A44A5
:10539A00584C5F4343575F434F4D504C49414E432E
:1053AA00455F4D415247494E2042726F61646361C5
:1053BA007374202D20000A44584C5F544F525155A3
:1053CA00455F454E41424C452042726F61646361BC
:1053DA007374202D2000496E70757420766F6C747A
:1053EA00616765206572726F722100416E676C6534
:1053FA00206C696D6974206572726F7221004F7634
:10540A00657268656174206572726F7221004F75EA
:10541A0074206F662072616E6765206572726F72A2
:10542A002100436865636B73756D206572726F72D4
:10543A0021004F7665726C6F6164206572726F72BB
:10544A002100496E737472756374696F6E20636F9D
:10545A006465206572726F72210001000A436F6EE3
:10546A0066696775726174696F6E206F6620656E12
:10547A0061626C65642041582D3132207365727601
:10548A006F7320646F6573206E6F74206D6174632F
:10549A0068206D6F74696F6E2E682E2041424F52DC
:1054AA005421000A556E7061636B204D6F74696FE9
:1054BA006E20506167652025692C20537465702021
:1054CA002569202D2072756262697368206461748F
:1054DA00612E2053544F502E000A536572766F2066
:1054EA00494425692C20537465702056616C756592
:1054FA00203D2025692C204D696E203D2025692CF0
:10550A00204D6178203D202569200A000A736574C0
:10551A004D6F74696F6E506167654A6F696E744644
:10552A006C65786962696C697479204343572049CC
:10553A00442569202D20000A7365744D6F74696FC4
:10554A006E506167654A6F696E74466C6578696208
:10555A00696C6974792043572049442569202D20B4
:10556A00000A657865637574654D6F74696F6E536B
:10557A00657175656E636520416C61726D20494481
:10558A002569202D204572726F7220436F64652051
:10559A0025690A00657865637574654D6F74696F6E
:1055AA006E204A6F696E7420466C657820256920E2
:1055BA002D20000001010101010101010101010188
:1055CA000101010101112802500200029F0200029A
:1055DA00C702000200021302BE0281020002140284
:1055EA00B402820267031D033B03AF01D8016001C5
:1055FA00FF013801FF01FF01FF014101EC01FF0139
:10560A007E014B01EC010002E701F8010002070AE2
:10561A006D6F7665546F476F616C506F7365202D9F
:10562A0020000A6D6F7665546F476F616C506F7317
:10563A006520416C61726D2049442569202D204501
:10564A0072726F7220436F64652025690A00EB004D
:10565A0014031701E802CE01310266019A02FB0126
:10566A0004025501AA02F0000F0387027801FB0128
:10567A0004029001456E74726F20616C2073697325
:10568A0074656D6100456E636F6E74726F20636F2F
:10569A0069636964656E636961200A20257300562F
:1056AA00616C6F7220636F6D616E646F2025690A89
:1056BA000056616C6F7220706167696E61206E6559
:1056CA007874206D6F74696F6E2025690A002563EE
:1056DA00256325632563202D204D6F74696F6E50F5
:1056EA00616765436F6D6D616E642025690A3E20AE
:1056FA00002563256325632563202D20436F6D6D87
:10570A00616E6420232025690A3E200025632563F3
:10571A0025632563200A556E6B6E6F776E20436F83
:10572A006D6D616E6421200A3E20000A44584C5F68
:10573A0050554E43482042726F616463617374200E
:0A574A002D20002000770D00000064
:00000001FF
